{
	"contracts/calculator.sol": {
		"Calculator": {
			"abi": [
				{
					"inputs": [
						{
							"internalType": "uint256",
							"name": "x",
							"type": "uint256"
						},
						{
							"internalType": "uint256",
							"name": "y",
							"type": "uint256"
						}
					],
					"name": "add",
					"outputs": [],
					"stateMutability": "nonpayable",
					"type": "function"
				},
				{
					"inputs": [
						{
							"internalType": "uint256",
							"name": "x",
							"type": "uint256"
						},
						{
							"internalType": "uint256",
							"name": "y",
							"type": "uint256"
						}
					],
					"name": "devide",
					"outputs": [],
					"stateMutability": "nonpayable",
					"type": "function"
				},
				{
					"inputs": [],
					"name": "get",
					"outputs": [
						{
							"internalType": "uint256",
							"name": "",
							"type": "uint256"
						}
					],
					"stateMutability": "view",
					"type": "function"
				},
				{
					"inputs": [
						{
							"internalType": "uint256",
							"name": "x",
							"type": "uint256"
						},
						{
							"internalType": "uint256",
							"name": "y",
							"type": "uint256"
						}
					],
					"name": "multiply",
					"outputs": [],
					"stateMutability": "nonpayable",
					"type": "function"
				},
				{
					"inputs": [
						{
							"internalType": "uint256",
							"name": "x",
							"type": "uint256"
						},
						{
							"internalType": "uint256",
							"name": "y",
							"type": "uint256"
						}
					],
					"name": "sub",
					"outputs": [],
					"stateMutability": "nonpayable",
					"type": "function"
				}
			],
			"devdoc": {
				"kind": "dev",
				"methods": {},
				"version": 1
			},
			"evm": {
				"assembly": "    /* \"contracts/calculator.sol\":66:562  contract Calculator {\r... */\n  mstore(0x40, 0x80)\n  callvalue\n  dup1\n  iszero\n  tag_1\n  jumpi\n  0x00\n  dup1\n  revert\ntag_1:\n  pop\n  dataSize(sub_0)\n  dup1\n  dataOffset(sub_0)\n  0x00\n  codecopy\n  0x00\n  return\nstop\n\nsub_0: assembly {\n        /* \"contracts/calculator.sol\":66:562  contract Calculator {\r... */\n      mstore(0x40, 0x80)\n      callvalue\n      dup1\n      iszero\n      tag_1\n      jumpi\n      0x00\n      dup1\n      revert\n    tag_1:\n      pop\n      jumpi(tag_2, lt(calldatasize, 0x04))\n      shr(0xe0, calldataload(0x00))\n      dup1\n      0x165c4a16\n      eq\n      tag_3\n      jumpi\n      dup1\n      0x6d4ce63c\n      eq\n      tag_4\n      jumpi\n      dup1\n      0x771602f7\n      eq\n      tag_5\n      jumpi\n      dup1\n      0xb67d77c5\n      eq\n      tag_6\n      jumpi\n      dup1\n      0xe9581c62\n      eq\n      tag_7\n      jumpi\n    tag_2:\n      0x00\n      dup1\n      revert\n        /* \"contracts/calculator.sol\":267:341  function multiply(uint x, uint y) public {\r... */\n    tag_3:\n      tag_8\n      0x04\n      dup1\n      calldatasize\n      sub\n      dup2\n      add\n      swap1\n      tag_9\n      swap2\n      swap1\n      tag_10\n      jump\t// in\n    tag_9:\n      tag_11\n      jump\t// in\n    tag_8:\n      stop\n        /* \"contracts/calculator.sol\":485:559  function get() public view returns (uint) {\r... */\n    tag_4:\n      tag_12\n      tag_13\n      jump\t// in\n    tag_12:\n      mload(0x40)\n      tag_14\n      swap2\n      swap1\n      tag_15\n      jump\t// in\n    tag_14:\n      mload(0x40)\n      dup1\n      swap2\n      sub\n      swap1\n      return\n        /* \"contracts/calculator.sol\":113:182  function add(uint x, uint y) public {\r... */\n    tag_5:\n      tag_16\n      0x04\n      dup1\n      calldatasize\n      sub\n      dup2\n      add\n      swap1\n      tag_17\n      swap2\n      swap1\n      tag_10\n      jump\t// in\n    tag_17:\n      tag_18\n      jump\t// in\n    tag_16:\n      stop\n        /* \"contracts/calculator.sol\":190:259  function sub(uint x, uint y) public {\r... */\n    tag_6:\n      tag_19\n      0x04\n      dup1\n      calldatasize\n      sub\n      dup2\n      add\n      swap1\n      tag_20\n      swap2\n      swap1\n      tag_10\n      jump\t// in\n    tag_20:\n      tag_21\n      jump\t// in\n    tag_19:\n      stop\n        /* \"contracts/calculator.sol\":349:477  function devide(uint x, uint y) public {\r... */\n    tag_7:\n      tag_22\n      0x04\n      dup1\n      calldatasize\n      sub\n      dup2\n      add\n      swap1\n      tag_23\n      swap2\n      swap1\n      tag_10\n      jump\t// in\n    tag_23:\n      tag_24\n      jump\t// in\n    tag_22:\n      stop\n        /* \"contracts/calculator.sol\":267:341  function multiply(uint x, uint y) public {\r... */\n    tag_11:\n        /* \"contracts/calculator.sol\":332:333  y */\n      dup1\n        /* \"contracts/calculator.sol\":328:329  x */\n      dup3\n        /* \"contracts/calculator.sol\":328:333  x * y */\n      tag_26\n      swap2\n      swap1\n      tag_27\n      jump\t// in\n    tag_26:\n        /* \"contracts/calculator.sol\":319:325  result */\n      0x00\n        /* \"contracts/calculator.sol\":319:333  result = x * y */\n      dup2\n      swap1\n      sstore\n      pop\n        /* \"contracts/calculator.sol\":267:341  function multiply(uint x, uint y) public {\r... */\n      pop\n      pop\n      jump\t// out\n        /* \"contracts/calculator.sol\":485:559  function get() public view returns (uint) {\r... */\n    tag_13:\n        /* \"contracts/calculator.sol\":521:525  uint */\n      0x00\n        /* \"contracts/calculator.sol\":545:551  result */\n      dup1\n      sload\n        /* \"contracts/calculator.sol\":538:551  return result */\n      swap1\n      pop\n        /* \"contracts/calculator.sol\":485:559  function get() public view returns (uint) {\r... */\n      swap1\n      jump\t// out\n        /* \"contracts/calculator.sol\":113:182  function add(uint x, uint y) public {\r... */\n    tag_18:\n        /* \"contracts/calculator.sol\":173:174  y */\n      dup1\n        /* \"contracts/calculator.sol\":169:170  x */\n      dup3\n        /* \"contracts/calculator.sol\":169:174  x + y */\n      tag_30\n      swap2\n      swap1\n      tag_31\n      jump\t// in\n    tag_30:\n        /* \"contracts/calculator.sol\":160:166  result */\n      0x00\n        /* \"contracts/calculator.sol\":160:174  result = x + y */\n      dup2\n      swap1\n      sstore\n      pop\n        /* \"contracts/calculator.sol\":113:182  function add(uint x, uint y) public {\r... */\n      pop\n      pop\n      jump\t// out\n        /* \"contracts/calculator.sol\":190:259  function sub(uint x, uint y) public {\r... */\n    tag_21:\n        /* \"contracts/calculator.sol\":250:251  y */\n      dup1\n        /* \"contracts/calculator.sol\":246:247  x */\n      dup3\n        /* \"contracts/calculator.sol\":246:251  x - y */\n      tag_33\n      swap2\n      swap1\n      tag_34\n      jump\t// in\n    tag_33:\n        /* \"contracts/calculator.sol\":237:243  result */\n      0x00\n        /* \"contracts/calculator.sol\":237:251  result = x - y */\n      dup2\n      swap1\n      sstore\n      pop\n        /* \"contracts/calculator.sol\":190:259  function sub(uint x, uint y) public {\r... */\n      pop\n      pop\n      jump\t// out\n        /* \"contracts/calculator.sol\":349:477  function devide(uint x, uint y) public {\r... */\n    tag_24:\n        /* \"contracts/calculator.sol\":410:411  0 */\n      0x00\n        /* \"contracts/calculator.sol\":407:408  y */\n      dup2\n        /* \"contracts/calculator.sol\":407:411  y!=0 */\n      eq\n      iszero\n        /* \"contracts/calculator.sol\":399:444  require(y!=0,'Division by zero not possible') */\n      tag_36\n      jumpi\n      mload(0x40)\n      0x08c379a000000000000000000000000000000000000000000000000000000000\n      dup2\n      mstore\n      0x04\n      add\n      tag_37\n      swap1\n      tag_38\n      jump\t// in\n    tag_37:\n      mload(0x40)\n      dup1\n      swap2\n      sub\n      swap1\n      revert\n    tag_36:\n        /* \"contracts/calculator.sol\":468:469  y */\n      dup1\n        /* \"contracts/calculator.sol\":464:465  x */\n      dup3\n        /* \"contracts/calculator.sol\":464:469  x / y */\n      tag_39\n      swap2\n      swap1\n      tag_40\n      jump\t// in\n    tag_39:\n        /* \"contracts/calculator.sol\":455:461  result */\n      0x00\n        /* \"contracts/calculator.sol\":455:469  result = x / y */\n      dup2\n      swap1\n      sstore\n      pop\n        /* \"contracts/calculator.sol\":349:477  function devide(uint x, uint y) public {\r... */\n      pop\n      pop\n      jump\t// out\n        /* \"#utility.yul\":7:146   */\n    tag_42:\n        /* \"#utility.yul\":53:58   */\n      0x00\n        /* \"#utility.yul\":91:97   */\n      dup2\n        /* \"#utility.yul\":78:98   */\n      calldataload\n        /* \"#utility.yul\":69:98   */\n      swap1\n      pop\n        /* \"#utility.yul\":107:140   */\n      tag_44\n        /* \"#utility.yul\":134:139   */\n      dup2\n        /* \"#utility.yul\":107:140   */\n      tag_45\n      jump\t// in\n    tag_44:\n        /* \"#utility.yul\":7:146   */\n      swap3\n      swap2\n      pop\n      pop\n      jump\t// out\n        /* \"#utility.yul\":152:626   */\n    tag_10:\n        /* \"#utility.yul\":220:226   */\n      0x00\n        /* \"#utility.yul\":228:234   */\n      dup1\n        /* \"#utility.yul\":277:279   */\n      0x40\n        /* \"#utility.yul\":265:274   */\n      dup4\n        /* \"#utility.yul\":256:263   */\n      dup6\n        /* \"#utility.yul\":252:275   */\n      sub\n        /* \"#utility.yul\":248:280   */\n      slt\n        /* \"#utility.yul\":245:364   */\n      iszero\n      tag_47\n      jumpi\n        /* \"#utility.yul\":283:362   */\n      tag_48\n      tag_49\n      jump\t// in\n    tag_48:\n        /* \"#utility.yul\":245:364   */\n    tag_47:\n        /* \"#utility.yul\":403:404   */\n      0x00\n        /* \"#utility.yul\":428:481   */\n      tag_50\n        /* \"#utility.yul\":473:480   */\n      dup6\n        /* \"#utility.yul\":464:470   */\n      dup3\n        /* \"#utility.yul\":453:462   */\n      dup7\n        /* \"#utility.yul\":449:471   */\n      add\n        /* \"#utility.yul\":428:481   */\n      tag_42\n      jump\t// in\n    tag_50:\n        /* \"#utility.yul\":418:481   */\n      swap3\n      pop\n        /* \"#utility.yul\":374:491   */\n      pop\n        /* \"#utility.yul\":530:532   */\n      0x20\n        /* \"#utility.yul\":556:609   */\n      tag_51\n        /* \"#utility.yul\":601:608   */\n      dup6\n        /* \"#utility.yul\":592:598   */\n      dup3\n        /* \"#utility.yul\":581:590   */\n      dup7\n        /* \"#utility.yul\":577:599   */\n      add\n        /* \"#utility.yul\":556:609   */\n      tag_42\n      jump\t// in\n    tag_51:\n        /* \"#utility.yul\":546:609   */\n      swap2\n      pop\n        /* \"#utility.yul\":501:619   */\n      pop\n        /* \"#utility.yul\":152:626   */\n      swap3\n      pop\n      swap3\n      swap1\n      pop\n      jump\t// out\n        /* \"#utility.yul\":632:998   */\n    tag_52:\n        /* \"#utility.yul\":774:777   */\n      0x00\n        /* \"#utility.yul\":795:862   */\n      tag_54\n        /* \"#utility.yul\":859:861   */\n      0x1d\n        /* \"#utility.yul\":854:857   */\n      dup4\n        /* \"#utility.yul\":795:862   */\n      tag_55\n      jump\t// in\n    tag_54:\n        /* \"#utility.yul\":788:862   */\n      swap2\n      pop\n        /* \"#utility.yul\":871:964   */\n      tag_56\n        /* \"#utility.yul\":960:963   */\n      dup3\n        /* \"#utility.yul\":871:964   */\n      tag_57\n      jump\t// in\n    tag_56:\n        /* \"#utility.yul\":989:991   */\n      0x20\n        /* \"#utility.yul\":984:987   */\n      dup3\n        /* \"#utility.yul\":980:992   */\n      add\n        /* \"#utility.yul\":973:992   */\n      swap1\n      pop\n        /* \"#utility.yul\":632:998   */\n      swap2\n      swap1\n      pop\n      jump\t// out\n        /* \"#utility.yul\":1004:1122   */\n    tag_58:\n        /* \"#utility.yul\":1091:1115   */\n      tag_60\n        /* \"#utility.yul\":1109:1114   */\n      dup2\n        /* \"#utility.yul\":1091:1115   */\n      tag_61\n      jump\t// in\n    tag_60:\n        /* \"#utility.yul\":1086:1089   */\n      dup3\n        /* \"#utility.yul\":1079:1116   */\n      mstore\n        /* \"#utility.yul\":1004:1122   */\n      pop\n      pop\n      jump\t// out\n        /* \"#utility.yul\":1128:1547   */\n    tag_38:\n        /* \"#utility.yul\":1294:1298   */\n      0x00\n        /* \"#utility.yul\":1332:1334   */\n      0x20\n        /* \"#utility.yul\":1321:1330   */\n      dup3\n        /* \"#utility.yul\":1317:1335   */\n      add\n        /* \"#utility.yul\":1309:1335   */\n      swap1\n      pop\n        /* \"#utility.yul\":1381:1390   */\n      dup2\n        /* \"#utility.yul\":1375:1379   */\n      dup2\n        /* \"#utility.yul\":1371:1391   */\n      sub\n        /* \"#utility.yul\":1367:1368   */\n      0x00\n        /* \"#utility.yul\":1356:1365   */\n      dup4\n        /* \"#utility.yul\":1352:1369   */\n      add\n        /* \"#utility.yul\":1345:1392   */\n      mstore\n        /* \"#utility.yul\":1409:1540   */\n      tag_63\n        /* \"#utility.yul\":1535:1539   */\n      dup2\n        /* \"#utility.yul\":1409:1540   */\n      tag_52\n      jump\t// in\n    tag_63:\n        /* \"#utility.yul\":1401:1540   */\n      swap1\n      pop\n        /* \"#utility.yul\":1128:1547   */\n      swap2\n      swap1\n      pop\n      jump\t// out\n        /* \"#utility.yul\":1553:1775   */\n    tag_15:\n        /* \"#utility.yul\":1646:1650   */\n      0x00\n        /* \"#utility.yul\":1684:1686   */\n      0x20\n        /* \"#utility.yul\":1673:1682   */\n      dup3\n        /* \"#utility.yul\":1669:1687   */\n      add\n        /* \"#utility.yul\":1661:1687   */\n      swap1\n      pop\n        /* \"#utility.yul\":1697:1768   */\n      tag_65\n        /* \"#utility.yul\":1765:1766   */\n      0x00\n        /* \"#utility.yul\":1754:1763   */\n      dup4\n        /* \"#utility.yul\":1750:1767   */\n      add\n        /* \"#utility.yul\":1741:1747   */\n      dup5\n        /* \"#utility.yul\":1697:1768   */\n      tag_58\n      jump\t// in\n    tag_65:\n        /* \"#utility.yul\":1553:1775   */\n      swap3\n      swap2\n      pop\n      pop\n      jump\t// out\n        /* \"#utility.yul\":1862:2031   */\n    tag_55:\n        /* \"#utility.yul\":1946:1957   */\n      0x00\n        /* \"#utility.yul\":1980:1986   */\n      dup3\n        /* \"#utility.yul\":1975:1978   */\n      dup3\n        /* \"#utility.yul\":1968:1987   */\n      mstore\n        /* \"#utility.yul\":2020:2024   */\n      0x20\n        /* \"#utility.yul\":2015:2018   */\n      dup3\n        /* \"#utility.yul\":2011:2025   */\n      add\n        /* \"#utility.yul\":1996:2025   */\n      swap1\n      pop\n        /* \"#utility.yul\":1862:2031   */\n      swap3\n      swap2\n      pop\n      pop\n      jump\t// out\n        /* \"#utility.yul\":2037:2342   */\n    tag_31:\n        /* \"#utility.yul\":2077:2080   */\n      0x00\n        /* \"#utility.yul\":2096:2116   */\n      tag_70\n        /* \"#utility.yul\":2114:2115   */\n      dup3\n        /* \"#utility.yul\":2096:2116   */\n      tag_61\n      jump\t// in\n    tag_70:\n        /* \"#utility.yul\":2091:2116   */\n      swap2\n      pop\n        /* \"#utility.yul\":2130:2150   */\n      tag_71\n        /* \"#utility.yul\":2148:2149   */\n      dup4\n        /* \"#utility.yul\":2130:2150   */\n      tag_61\n      jump\t// in\n    tag_71:\n        /* \"#utility.yul\":2125:2150   */\n      swap3\n      pop\n        /* \"#utility.yul\":2284:2285   */\n      dup3\n        /* \"#utility.yul\":2216:2282   */\n      0xffffffffffffffffffffffffffffffffffffffffffffffffffffffffffffffff\n        /* \"#utility.yul\":2212:2286   */\n      sub\n        /* \"#utility.yul\":2209:2210   */\n      dup3\n        /* \"#utility.yul\":2206:2287   */\n      gt\n        /* \"#utility.yul\":2203:2310   */\n      iszero\n      tag_72\n      jumpi\n        /* \"#utility.yul\":2290:2308   */\n      tag_73\n      tag_74\n      jump\t// in\n    tag_73:\n        /* \"#utility.yul\":2203:2310   */\n    tag_72:\n        /* \"#utility.yul\":2334:2335   */\n      dup3\n        /* \"#utility.yul\":2331:2332   */\n      dup3\n        /* \"#utility.yul\":2327:2336   */\n      add\n        /* \"#utility.yul\":2320:2336   */\n      swap1\n      pop\n        /* \"#utility.yul\":2037:2342   */\n      swap3\n      swap2\n      pop\n      pop\n      jump\t// out\n        /* \"#utility.yul\":2348:2533   */\n    tag_40:\n        /* \"#utility.yul\":2388:2389   */\n      0x00\n        /* \"#utility.yul\":2405:2425   */\n      tag_76\n        /* \"#utility.yul\":2423:2424   */\n      dup3\n        /* \"#utility.yul\":2405:2425   */\n      tag_61\n      jump\t// in\n    tag_76:\n        /* \"#utility.yul\":2400:2425   */\n      swap2\n      pop\n        /* \"#utility.yul\":2439:2459   */\n      tag_77\n        /* \"#utility.yul\":2457:2458   */\n      dup4\n        /* \"#utility.yul\":2439:2459   */\n      tag_61\n      jump\t// in\n    tag_77:\n        /* \"#utility.yul\":2434:2459   */\n      swap3\n      pop\n        /* \"#utility.yul\":2478:2479   */\n      dup3\n        /* \"#utility.yul\":2468:2503   */\n      tag_78\n      jumpi\n        /* \"#utility.yul\":2483:2501   */\n      tag_79\n      tag_80\n      jump\t// in\n    tag_79:\n        /* \"#utility.yul\":2468:2503   */\n    tag_78:\n        /* \"#utility.yul\":2525:2526   */\n      dup3\n        /* \"#utility.yul\":2522:2523   */\n      dup3\n        /* \"#utility.yul\":2518:2527   */\n      div\n        /* \"#utility.yul\":2513:2527   */\n      swap1\n      pop\n        /* \"#utility.yul\":2348:2533   */\n      swap3\n      swap2\n      pop\n      pop\n      jump\t// out\n        /* \"#utility.yul\":2539:2887   */\n    tag_27:\n        /* \"#utility.yul\":2579:2586   */\n      0x00\n        /* \"#utility.yul\":2602:2622   */\n      tag_82\n        /* \"#utility.yul\":2620:2621   */\n      dup3\n        /* \"#utility.yul\":2602:2622   */\n      tag_61\n      jump\t// in\n    tag_82:\n        /* \"#utility.yul\":2597:2622   */\n      swap2\n      pop\n        /* \"#utility.yul\":2636:2656   */\n      tag_83\n        /* \"#utility.yul\":2654:2655   */\n      dup4\n        /* \"#utility.yul\":2636:2656   */\n      tag_61\n      jump\t// in\n    tag_83:\n        /* \"#utility.yul\":2631:2656   */\n      swap3\n      pop\n        /* \"#utility.yul\":2824:2825   */\n      dup2\n        /* \"#utility.yul\":2756:2822   */\n      0xffffffffffffffffffffffffffffffffffffffffffffffffffffffffffffffff\n        /* \"#utility.yul\":2752:2826   */\n      div\n        /* \"#utility.yul\":2749:2750   */\n      dup4\n        /* \"#utility.yul\":2746:2827   */\n      gt\n        /* \"#utility.yul\":2741:2742   */\n      dup3\n        /* \"#utility.yul\":2734:2743   */\n      iszero\n        /* \"#utility.yul\":2727:2744   */\n      iszero\n        /* \"#utility.yul\":2723:2828   */\n      and\n        /* \"#utility.yul\":2720:2851   */\n      iszero\n      tag_84\n      jumpi\n        /* \"#utility.yul\":2831:2849   */\n      tag_85\n      tag_74\n      jump\t// in\n    tag_85:\n        /* \"#utility.yul\":2720:2851   */\n    tag_84:\n        /* \"#utility.yul\":2879:2880   */\n      dup3\n        /* \"#utility.yul\":2876:2877   */\n      dup3\n        /* \"#utility.yul\":2872:2881   */\n      mul\n        /* \"#utility.yul\":2861:2881   */\n      swap1\n      pop\n        /* \"#utility.yul\":2539:2887   */\n      swap3\n      swap2\n      pop\n      pop\n      jump\t// out\n        /* \"#utility.yul\":2893:3084   */\n    tag_34:\n        /* \"#utility.yul\":2933:2937   */\n      0x00\n        /* \"#utility.yul\":2953:2973   */\n      tag_87\n        /* \"#utility.yul\":2971:2972   */\n      dup3\n        /* \"#utility.yul\":2953:2973   */\n      tag_61\n      jump\t// in\n    tag_87:\n        /* \"#utility.yul\":2948:2973   */\n      swap2\n      pop\n        /* \"#utility.yul\":2987:3007   */\n      tag_88\n        /* \"#utility.yul\":3005:3006   */\n      dup4\n        /* \"#utility.yul\":2987:3007   */\n      tag_61\n      jump\t// in\n    tag_88:\n        /* \"#utility.yul\":2982:3007   */\n      swap3\n      pop\n        /* \"#utility.yul\":3026:3027   */\n      dup3\n        /* \"#utility.yul\":3023:3024   */\n      dup3\n        /* \"#utility.yul\":3020:3028   */\n      lt\n        /* \"#utility.yul\":3017:3051   */\n      iszero\n      tag_89\n      jumpi\n        /* \"#utility.yul\":3031:3049   */\n      tag_90\n      tag_74\n      jump\t// in\n    tag_90:\n        /* \"#utility.yul\":3017:3051   */\n    tag_89:\n        /* \"#utility.yul\":3076:3077   */\n      dup3\n        /* \"#utility.yul\":3073:3074   */\n      dup3\n        /* \"#utility.yul\":3069:3078   */\n      sub\n        /* \"#utility.yul\":3061:3078   */\n      swap1\n      pop\n        /* \"#utility.yul\":2893:3084   */\n      swap3\n      swap2\n      pop\n      pop\n      jump\t// out\n        /* \"#utility.yul\":3090:3167   */\n    tag_61:\n        /* \"#utility.yul\":3127:3134   */\n      0x00\n        /* \"#utility.yul\":3156:3161   */\n      dup2\n        /* \"#utility.yul\":3145:3161   */\n      swap1\n      pop\n        /* \"#utility.yul\":3090:3167   */\n      swap2\n      swap1\n      pop\n      jump\t// out\n        /* \"#utility.yul\":3173:3353   */\n    tag_74:\n        /* \"#utility.yul\":3221:3298   */\n      0x4e487b7100000000000000000000000000000000000000000000000000000000\n        /* \"#utility.yul\":3218:3219   */\n      0x00\n        /* \"#utility.yul\":3211:3299   */\n      mstore\n        /* \"#utility.yul\":3318:3322   */\n      0x11\n        /* \"#utility.yul\":3315:3316   */\n      0x04\n        /* \"#utility.yul\":3308:3323   */\n      mstore\n        /* \"#utility.yul\":3342:3346   */\n      0x24\n        /* \"#utility.yul\":3339:3340   */\n      0x00\n        /* \"#utility.yul\":3332:3347   */\n      revert\n        /* \"#utility.yul\":3359:3539   */\n    tag_80:\n        /* \"#utility.yul\":3407:3484   */\n      0x4e487b7100000000000000000000000000000000000000000000000000000000\n        /* \"#utility.yul\":3404:3405   */\n      0x00\n        /* \"#utility.yul\":3397:3485   */\n      mstore\n        /* \"#utility.yul\":3504:3508   */\n      0x12\n        /* \"#utility.yul\":3501:3502   */\n      0x04\n        /* \"#utility.yul\":3494:3509   */\n      mstore\n        /* \"#utility.yul\":3528:3532   */\n      0x24\n        /* \"#utility.yul\":3525:3526   */\n      0x00\n        /* \"#utility.yul\":3518:3533   */\n      revert\n        /* \"#utility.yul\":3668:3785   */\n    tag_49:\n        /* \"#utility.yul\":3777:3778   */\n      0x00\n        /* \"#utility.yul\":3774:3775   */\n      dup1\n        /* \"#utility.yul\":3767:3779   */\n      revert\n        /* \"#utility.yul\":3791:3970   */\n    tag_57:\n        /* \"#utility.yul\":3931:3962   */\n      0x4469766973696f6e206279207a65726f206e6f7420706f737369626c65000000\n        /* \"#utility.yul\":3927:3928   */\n      0x00\n        /* \"#utility.yul\":3919:3925   */\n      dup3\n        /* \"#utility.yul\":3915:3929   */\n      add\n        /* \"#utility.yul\":3908:3963   */\n      mstore\n        /* \"#utility.yul\":3791:3970   */\n      pop\n      jump\t// out\n        /* \"#utility.yul\":3976:4098   */\n    tag_45:\n        /* \"#utility.yul\":4049:4073   */\n      tag_99\n        /* \"#utility.yul\":4067:4072   */\n      dup2\n        /* \"#utility.yul\":4049:4073   */\n      tag_61\n      jump\t// in\n    tag_99:\n        /* \"#utility.yul\":4042:4047   */\n      dup2\n        /* \"#utility.yul\":4039:4074   */\n      eq\n        /* \"#utility.yul\":4029:4092   */\n      tag_100\n      jumpi\n        /* \"#utility.yul\":4088:4089   */\n      0x00\n        /* \"#utility.yul\":4085:4086   */\n      dup1\n        /* \"#utility.yul\":4078:4090   */\n      revert\n        /* \"#utility.yul\":4029:4092   */\n    tag_100:\n        /* \"#utility.yul\":3976:4098   */\n      pop\n      jump\t// out\n\n    auxdata: 0xa2646970667358221220e93eeaadb84eac5f226483fc4c4a55969e7fe1b1c4f94f16f4d7aa26544073ee64736f6c63430008070033\n}\n",
				"bytecode": {
					"linkReferences": {},
					"object": "608060405234801561001057600080fd5b5061045a806100206000396000f3fe608060405234801561001057600080fd5b50600436106100575760003560e01c8063165c4a161461005c5780636d4ce63c14610078578063771602f714610096578063b67d77c5146100b2578063e9581c62146100ce575b600080fd5b610076600480360381019061007191906101a4565b6100ea565b005b610080610100565b60405161008d9190610236565b60405180910390f35b6100b060048036038101906100ab91906101a4565b610109565b005b6100cc60048036038101906100c791906101a4565b61011f565b005b6100e860048036038101906100e391906101a4565b610135565b005b80826100f691906102e9565b6000819055505050565b60008054905090565b80826101159190610262565b6000819055505050565b808261012b9190610343565b6000819055505050565b6000811415610179576040517f08c379a000000000000000000000000000000000000000000000000000000000815260040161017090610216565b60405180910390fd5b808261018591906102b8565b6000819055505050565b60008135905061019e8161040d565b92915050565b600080604083850312156101bb576101ba6103df565b5b60006101c98582860161018f565b92505060206101da8582860161018f565b9150509250929050565b60006101f1601d83610251565b91506101fc826103e4565b602082019050919050565b61021081610377565b82525050565b6000602082019050818103600083015261022f816101e4565b9050919050565b600060208201905061024b6000830184610207565b92915050565b600082825260208201905092915050565b600061026d82610377565b915061027883610377565b9250827fffffffffffffffffffffffffffffffffffffffffffffffffffffffffffffffff038211156102ad576102ac610381565b5b828201905092915050565b60006102c382610377565b91506102ce83610377565b9250826102de576102dd6103b0565b5b828204905092915050565b60006102f482610377565b91506102ff83610377565b9250817fffffffffffffffffffffffffffffffffffffffffffffffffffffffffffffffff048311821515161561033857610337610381565b5b828202905092915050565b600061034e82610377565b915061035983610377565b92508282101561036c5761036b610381565b5b828203905092915050565b6000819050919050565b7f4e487b7100000000000000000000000000000000000000000000000000000000600052601160045260246000fd5b7f4e487b7100000000000000000000000000000000000000000000000000000000600052601260045260246000fd5b600080fd5b7f4469766973696f6e206279207a65726f206e6f7420706f737369626c65000000600082015250565b61041681610377565b811461042157600080fd5b5056fea2646970667358221220e93eeaadb84eac5f226483fc4c4a55969e7fe1b1c4f94f16f4d7aa26544073ee64736f6c63430008070033",
					"opcodes": "PUSH1 0x80 PUSH1 0x40 MSTORE CALLVALUE DUP1 ISZERO PUSH2 0x10 JUMPI PUSH1 0x0 DUP1 REVERT JUMPDEST POP PUSH2 0x45A DUP1 PUSH2 0x20 PUSH1 0x0 CODECOPY PUSH1 0x0 RETURN INVALID PUSH1 0x80 PUSH1 0x40 MSTORE CALLVALUE DUP1 ISZERO PUSH2 0x10 JUMPI PUSH1 0x0 DUP1 REVERT JUMPDEST POP PUSH1 0x4 CALLDATASIZE LT PUSH2 0x57 JUMPI PUSH1 0x0 CALLDATALOAD PUSH1 0xE0 SHR DUP1 PUSH4 0x165C4A16 EQ PUSH2 0x5C JUMPI DUP1 PUSH4 0x6D4CE63C EQ PUSH2 0x78 JUMPI DUP1 PUSH4 0x771602F7 EQ PUSH2 0x96 JUMPI DUP1 PUSH4 0xB67D77C5 EQ PUSH2 0xB2 JUMPI DUP1 PUSH4 0xE9581C62 EQ PUSH2 0xCE JUMPI JUMPDEST PUSH1 0x0 DUP1 REVERT JUMPDEST PUSH2 0x76 PUSH1 0x4 DUP1 CALLDATASIZE SUB DUP2 ADD SWAP1 PUSH2 0x71 SWAP2 SWAP1 PUSH2 0x1A4 JUMP JUMPDEST PUSH2 0xEA JUMP JUMPDEST STOP JUMPDEST PUSH2 0x80 PUSH2 0x100 JUMP JUMPDEST PUSH1 0x40 MLOAD PUSH2 0x8D SWAP2 SWAP1 PUSH2 0x236 JUMP JUMPDEST PUSH1 0x40 MLOAD DUP1 SWAP2 SUB SWAP1 RETURN JUMPDEST PUSH2 0xB0 PUSH1 0x4 DUP1 CALLDATASIZE SUB DUP2 ADD SWAP1 PUSH2 0xAB SWAP2 SWAP1 PUSH2 0x1A4 JUMP JUMPDEST PUSH2 0x109 JUMP JUMPDEST STOP JUMPDEST PUSH2 0xCC PUSH1 0x4 DUP1 CALLDATASIZE SUB DUP2 ADD SWAP1 PUSH2 0xC7 SWAP2 SWAP1 PUSH2 0x1A4 JUMP JUMPDEST PUSH2 0x11F JUMP JUMPDEST STOP JUMPDEST PUSH2 0xE8 PUSH1 0x4 DUP1 CALLDATASIZE SUB DUP2 ADD SWAP1 PUSH2 0xE3 SWAP2 SWAP1 PUSH2 0x1A4 JUMP JUMPDEST PUSH2 0x135 JUMP JUMPDEST STOP JUMPDEST DUP1 DUP3 PUSH2 0xF6 SWAP2 SWAP1 PUSH2 0x2E9 JUMP JUMPDEST PUSH1 0x0 DUP2 SWAP1 SSTORE POP POP POP JUMP JUMPDEST PUSH1 0x0 DUP1 SLOAD SWAP1 POP SWAP1 JUMP JUMPDEST DUP1 DUP3 PUSH2 0x115 SWAP2 SWAP1 PUSH2 0x262 JUMP JUMPDEST PUSH1 0x0 DUP2 SWAP1 SSTORE POP POP POP JUMP JUMPDEST DUP1 DUP3 PUSH2 0x12B SWAP2 SWAP1 PUSH2 0x343 JUMP JUMPDEST PUSH1 0x0 DUP2 SWAP1 SSTORE POP POP POP JUMP JUMPDEST PUSH1 0x0 DUP2 EQ ISZERO PUSH2 0x179 JUMPI PUSH1 0x40 MLOAD PUSH32 0x8C379A000000000000000000000000000000000000000000000000000000000 DUP2 MSTORE PUSH1 0x4 ADD PUSH2 0x170 SWAP1 PUSH2 0x216 JUMP JUMPDEST PUSH1 0x40 MLOAD DUP1 SWAP2 SUB SWAP1 REVERT JUMPDEST DUP1 DUP3 PUSH2 0x185 SWAP2 SWAP1 PUSH2 0x2B8 JUMP JUMPDEST PUSH1 0x0 DUP2 SWAP1 SSTORE POP POP POP JUMP JUMPDEST PUSH1 0x0 DUP2 CALLDATALOAD SWAP1 POP PUSH2 0x19E DUP2 PUSH2 0x40D JUMP JUMPDEST SWAP3 SWAP2 POP POP JUMP JUMPDEST PUSH1 0x0 DUP1 PUSH1 0x40 DUP4 DUP6 SUB SLT ISZERO PUSH2 0x1BB JUMPI PUSH2 0x1BA PUSH2 0x3DF JUMP JUMPDEST JUMPDEST PUSH1 0x0 PUSH2 0x1C9 DUP6 DUP3 DUP7 ADD PUSH2 0x18F JUMP JUMPDEST SWAP3 POP POP PUSH1 0x20 PUSH2 0x1DA DUP6 DUP3 DUP7 ADD PUSH2 0x18F JUMP JUMPDEST SWAP2 POP POP SWAP3 POP SWAP3 SWAP1 POP JUMP JUMPDEST PUSH1 0x0 PUSH2 0x1F1 PUSH1 0x1D DUP4 PUSH2 0x251 JUMP JUMPDEST SWAP2 POP PUSH2 0x1FC DUP3 PUSH2 0x3E4 JUMP JUMPDEST PUSH1 0x20 DUP3 ADD SWAP1 POP SWAP2 SWAP1 POP JUMP JUMPDEST PUSH2 0x210 DUP2 PUSH2 0x377 JUMP JUMPDEST DUP3 MSTORE POP POP JUMP JUMPDEST PUSH1 0x0 PUSH1 0x20 DUP3 ADD SWAP1 POP DUP2 DUP2 SUB PUSH1 0x0 DUP4 ADD MSTORE PUSH2 0x22F DUP2 PUSH2 0x1E4 JUMP JUMPDEST SWAP1 POP SWAP2 SWAP1 POP JUMP JUMPDEST PUSH1 0x0 PUSH1 0x20 DUP3 ADD SWAP1 POP PUSH2 0x24B PUSH1 0x0 DUP4 ADD DUP5 PUSH2 0x207 JUMP JUMPDEST SWAP3 SWAP2 POP POP JUMP JUMPDEST PUSH1 0x0 DUP3 DUP3 MSTORE PUSH1 0x20 DUP3 ADD SWAP1 POP SWAP3 SWAP2 POP POP JUMP JUMPDEST PUSH1 0x0 PUSH2 0x26D DUP3 PUSH2 0x377 JUMP JUMPDEST SWAP2 POP PUSH2 0x278 DUP4 PUSH2 0x377 JUMP JUMPDEST SWAP3 POP DUP3 PUSH32 0xFFFFFFFFFFFFFFFFFFFFFFFFFFFFFFFFFFFFFFFFFFFFFFFFFFFFFFFFFFFFFFFF SUB DUP3 GT ISZERO PUSH2 0x2AD JUMPI PUSH2 0x2AC PUSH2 0x381 JUMP JUMPDEST JUMPDEST DUP3 DUP3 ADD SWAP1 POP SWAP3 SWAP2 POP POP JUMP JUMPDEST PUSH1 0x0 PUSH2 0x2C3 DUP3 PUSH2 0x377 JUMP JUMPDEST SWAP2 POP PUSH2 0x2CE DUP4 PUSH2 0x377 JUMP JUMPDEST SWAP3 POP DUP3 PUSH2 0x2DE JUMPI PUSH2 0x2DD PUSH2 0x3B0 JUMP JUMPDEST JUMPDEST DUP3 DUP3 DIV SWAP1 POP SWAP3 SWAP2 POP POP JUMP JUMPDEST PUSH1 0x0 PUSH2 0x2F4 DUP3 PUSH2 0x377 JUMP JUMPDEST SWAP2 POP PUSH2 0x2FF DUP4 PUSH2 0x377 JUMP JUMPDEST SWAP3 POP DUP2 PUSH32 0xFFFFFFFFFFFFFFFFFFFFFFFFFFFFFFFFFFFFFFFFFFFFFFFFFFFFFFFFFFFFFFFF DIV DUP4 GT DUP3 ISZERO ISZERO AND ISZERO PUSH2 0x338 JUMPI PUSH2 0x337 PUSH2 0x381 JUMP JUMPDEST JUMPDEST DUP3 DUP3 MUL SWAP1 POP SWAP3 SWAP2 POP POP JUMP JUMPDEST PUSH1 0x0 PUSH2 0x34E DUP3 PUSH2 0x377 JUMP JUMPDEST SWAP2 POP PUSH2 0x359 DUP4 PUSH2 0x377 JUMP JUMPDEST SWAP3 POP DUP3 DUP3 LT ISZERO PUSH2 0x36C JUMPI PUSH2 0x36B PUSH2 0x381 JUMP JUMPDEST JUMPDEST DUP3 DUP3 SUB SWAP1 POP SWAP3 SWAP2 POP POP JUMP JUMPDEST PUSH1 0x0 DUP2 SWAP1 POP SWAP2 SWAP1 POP JUMP JUMPDEST PUSH32 0x4E487B7100000000000000000000000000000000000000000000000000000000 PUSH1 0x0 MSTORE PUSH1 0x11 PUSH1 0x4 MSTORE PUSH1 0x24 PUSH1 0x0 REVERT JUMPDEST PUSH32 0x4E487B7100000000000000000000000000000000000000000000000000000000 PUSH1 0x0 MSTORE PUSH1 0x12 PUSH1 0x4 MSTORE PUSH1 0x24 PUSH1 0x0 REVERT JUMPDEST PUSH1 0x0 DUP1 REVERT JUMPDEST PUSH32 0x4469766973696F6E206279207A65726F206E6F7420706F737369626C65000000 PUSH1 0x0 DUP3 ADD MSTORE POP JUMP JUMPDEST PUSH2 0x416 DUP2 PUSH2 0x377 JUMP JUMPDEST DUP2 EQ PUSH2 0x421 JUMPI PUSH1 0x0 DUP1 REVERT JUMPDEST POP JUMP INVALID LOG2 PUSH5 0x6970667358 0x22 SLT KECCAK256 0xE9 RETURNDATACOPY 0xEA 0xAD 0xB8 0x4E 0xAC 0x5F 0x22 PUSH5 0x83FC4C4A55 SWAP7 SWAP15 PUSH32 0xE1B1C4F94F16F4D7AA26544073EE64736F6C6343000807003300000000000000 "
				},
				"gasEstimates": {
					"creation": {
						"codeDepositCost": "222800",
						"executionCost": "263",
						"totalCost": "223063"
					},
					"external": {
						"add(uint256,uint256)": "infinite",
						"devide(uint256,uint256)": "infinite",
						"get()": "2437",
						"multiply(uint256,uint256)": "infinite",
						"sub(uint256,uint256)": "infinite"
					}
				},
				"methodIdentifiers": {
					"add(uint256,uint256)": "771602f7",
					"devide(uint256,uint256)": "e9581c62",
					"get()": "6d4ce63c",
					"multiply(uint256,uint256)": "165c4a16",
					"sub(uint256,uint256)": "b67d77c5"
				}
			},
			"userdoc": {
				"kind": "user",
				"methods": {},
				"version": 1
			}
		}
	}
}