{
	"contracts/calculator.sol": {
		"Calculator": {
			"abi": [
				{
					"inputs": [
						{
							"internalType": "uint256",
							"name": "x",
							"type": "uint256"
						},
						{
							"internalType": "uint256",
							"name": "y",
							"type": "uint256"
						}
					],
					"name": "add",
					"outputs": [],
					"stateMutability": "nonpayable",
					"type": "function"
				},
				{
					"inputs": [
						{
							"internalType": "uint256",
							"name": "",
							"type": "uint256"
						}
					],
					"name": "additionHistory",
					"outputs": [
						{
							"internalType": "uint256",
							"name": "input1",
							"type": "uint256"
						},
						{
							"internalType": "uint256",
							"name": "input2",
							"type": "uint256"
						},
						{
							"internalType": "uint256",
							"name": "result1",
							"type": "uint256"
						}
					],
					"stateMutability": "view",
					"type": "function"
				},
				{
					"inputs": [
						{
							"internalType": "uint256",
							"name": "x",
							"type": "uint256"
						},
						{
							"internalType": "uint256",
							"name": "y",
							"type": "uint256"
						}
					],
					"name": "divide",
					"outputs": [],
					"stateMutability": "nonpayable",
					"type": "function"
				},
				{
					"inputs": [],
					"name": "get",
					"outputs": [
						{
							"internalType": "uint256",
							"name": "",
							"type": "uint256"
						}
					],
					"stateMutability": "view",
					"type": "function"
				},
				{
					"inputs": [
						{
							"internalType": "uint256",
							"name": "x",
							"type": "uint256"
						},
						{
							"internalType": "uint256",
							"name": "y",
							"type": "uint256"
						}
					],
					"name": "multiply",
					"outputs": [],
					"stateMutability": "nonpayable",
					"type": "function"
				},
				{
					"inputs": [
						{
							"internalType": "uint256",
							"name": "x",
							"type": "uint256"
						},
						{
							"internalType": "uint256",
							"name": "y",
							"type": "uint256"
						}
					],
					"name": "sub",
					"outputs": [],
					"stateMutability": "nonpayable",
					"type": "function"
				}
			],
			"devdoc": {
				"kind": "dev",
				"methods": {},
				"version": 1
			},
			"evm": {
				"assembly": "    /* \"contracts/calculator.sol\":66:741  contract Calculator {\r... */\n  mstore(0x40, 0x80)\n  callvalue\n  dup1\n  iszero\n  tag_1\n  jumpi\n  0x00\n  dup1\n  revert\ntag_1:\n  pop\n  dataSize(sub_0)\n  dup1\n  dataOffset(sub_0)\n  0x00\n  codecopy\n  0x00\n  return\nstop\n\nsub_0: assembly {\n        /* \"contracts/calculator.sol\":66:741  contract Calculator {\r... */\n      mstore(0x40, 0x80)\n      callvalue\n      dup1\n      iszero\n      tag_1\n      jumpi\n      0x00\n      dup1\n      revert\n    tag_1:\n      pop\n      jumpi(tag_2, lt(calldatasize, 0x04))\n      shr(0xe0, calldataload(0x00))\n      dup1\n      0x0e08e1b0\n      eq\n      tag_3\n      jumpi\n      dup1\n      0x165c4a16\n      eq\n      tag_4\n      jumpi\n      dup1\n      0x6d4ce63c\n      eq\n      tag_5\n      jumpi\n      dup1\n      0x771602f7\n      eq\n      tag_6\n      jumpi\n      dup1\n      0xb67d77c5\n      eq\n      tag_7\n      jumpi\n      dup1\n      0xf88e9fbf\n      eq\n      tag_8\n      jumpi\n    tag_2:\n      0x00\n      dup1\n      revert\n        /* \"contracts/calculator.sol\":203:233  add1 [] public additionHistory */\n    tag_3:\n      tag_9\n      0x04\n      dup1\n      calldatasize\n      sub\n      dup2\n      add\n      swap1\n      tag_10\n      swap2\n      swap1\n      tag_11\n      jump\t// in\n    tag_10:\n      tag_12\n      jump\t// in\n    tag_9:\n      mload(0x40)\n      tag_13\n      swap4\n      swap3\n      swap2\n      swap1\n      tag_14\n      jump\t// in\n    tag_13:\n      mload(0x40)\n      dup1\n      swap2\n      sub\n      swap1\n      return\n        /* \"contracts/calculator.sol\":446:520  function multiply(uint x, uint y) public {\r... */\n    tag_4:\n      tag_15\n      0x04\n      dup1\n      calldatasize\n      sub\n      dup2\n      add\n      swap1\n      tag_16\n      swap2\n      swap1\n      tag_17\n      jump\t// in\n    tag_16:\n      tag_18\n      jump\t// in\n    tag_15:\n      stop\n        /* \"contracts/calculator.sol\":664:738  function get() public view returns (uint) {\r... */\n    tag_5:\n      tag_19\n      tag_20\n      jump\t// in\n    tag_19:\n      mload(0x40)\n      tag_21\n      swap2\n      swap1\n      tag_22\n      jump\t// in\n    tag_21:\n      mload(0x40)\n      dup1\n      swap2\n      sub\n      swap1\n      return\n        /* \"contracts/calculator.sol\":242:361  function add(uint x, uint y) public {\r... */\n    tag_6:\n      tag_23\n      0x04\n      dup1\n      calldatasize\n      sub\n      dup2\n      add\n      swap1\n      tag_24\n      swap2\n      swap1\n      tag_17\n      jump\t// in\n    tag_24:\n      tag_25\n      jump\t// in\n    tag_23:\n      stop\n        /* \"contracts/calculator.sol\":369:438  function sub(uint x, uint y) public {\r... */\n    tag_7:\n      tag_26\n      0x04\n      dup1\n      calldatasize\n      sub\n      dup2\n      add\n      swap1\n      tag_27\n      swap2\n      swap1\n      tag_17\n      jump\t// in\n    tag_27:\n      tag_28\n      jump\t// in\n    tag_26:\n      stop\n        /* \"contracts/calculator.sol\":528:656  function divide(uint x, uint y) public {\r... */\n    tag_8:\n      tag_29\n      0x04\n      dup1\n      calldatasize\n      sub\n      dup2\n      add\n      swap1\n      tag_30\n      swap2\n      swap1\n      tag_17\n      jump\t// in\n    tag_30:\n      tag_31\n      jump\t// in\n    tag_29:\n      stop\n        /* \"contracts/calculator.sol\":203:233  add1 [] public additionHistory */\n    tag_12:\n      0x01\n      dup2\n      dup2\n      sload\n      dup2\n      lt\n      tag_32\n      jumpi\n      0x00\n      dup1\n      revert\n    tag_32:\n      swap1\n      0x00\n      mstore\n      keccak256(0x00, 0x20)\n      swap1\n      0x03\n      mul\n      add\n      0x00\n      swap2\n      pop\n      swap1\n      pop\n      dup1\n      0x00\n      add\n      sload\n      swap1\n      dup1\n      0x01\n      add\n      sload\n      swap1\n      dup1\n      0x02\n      add\n      sload\n      swap1\n      pop\n      dup4\n      jump\t// out\n        /* \"contracts/calculator.sol\":446:520  function multiply(uint x, uint y) public {\r... */\n    tag_18:\n        /* \"contracts/calculator.sol\":511:512  y */\n      dup1\n        /* \"contracts/calculator.sol\":507:508  x */\n      dup3\n        /* \"contracts/calculator.sol\":507:512  x * y */\n      tag_35\n      swap2\n      swap1\n      tag_36\n      jump\t// in\n    tag_35:\n        /* \"contracts/calculator.sol\":498:504  result */\n      0x00\n        /* \"contracts/calculator.sol\":498:512  result = x * y */\n      dup2\n      swap1\n      sstore\n      pop\n        /* \"contracts/calculator.sol\":446:520  function multiply(uint x, uint y) public {\r... */\n      pop\n      pop\n      jump\t// out\n        /* \"contracts/calculator.sol\":664:738  function get() public view returns (uint) {\r... */\n    tag_20:\n        /* \"contracts/calculator.sol\":700:704  uint */\n      0x00\n        /* \"contracts/calculator.sol\":724:730  result */\n      dup1\n      sload\n        /* \"contracts/calculator.sol\":717:730  return result */\n      swap1\n      pop\n        /* \"contracts/calculator.sol\":664:738  function get() public view returns (uint) {\r... */\n      swap1\n      jump\t// out\n        /* \"contracts/calculator.sol\":242:361  function add(uint x, uint y) public {\r... */\n    tag_25:\n        /* \"contracts/calculator.sol\":302:303  y */\n      dup1\n        /* \"contracts/calculator.sol\":298:299  x */\n      dup3\n        /* \"contracts/calculator.sol\":298:303  x + y */\n      tag_39\n      swap2\n      swap1\n      tag_40\n      jump\t// in\n    tag_39:\n        /* \"contracts/calculator.sol\":289:295  result */\n      0x00\n        /* \"contracts/calculator.sol\":289:303  result = x + y */\n      dup2\n      swap1\n      sstore\n      pop\n        /* \"contracts/calculator.sol\":314:329  additionHistory */\n      0x01\n        /* \"contracts/calculator.sol\":335:348  add1(x,y,x+y) */\n      mload(0x40)\n      dup1\n      0x60\n      add\n      0x40\n      mstore\n      dup1\n        /* \"contracts/calculator.sol\":340:341  x */\n      dup5\n        /* \"contracts/calculator.sol\":335:348  add1(x,y,x+y) */\n      dup2\n      mstore\n      0x20\n      add\n        /* \"contracts/calculator.sol\":342:343  y */\n      dup4\n        /* \"contracts/calculator.sol\":335:348  add1(x,y,x+y) */\n      dup2\n      mstore\n      0x20\n      add\n        /* \"contracts/calculator.sol\":346:347  y */\n      dup4\n        /* \"contracts/calculator.sol\":344:345  x */\n      dup6\n        /* \"contracts/calculator.sol\":344:347  x+y */\n      tag_41\n      swap2\n      swap1\n      tag_40\n      jump\t// in\n    tag_41:\n        /* \"contracts/calculator.sol\":335:348  add1(x,y,x+y) */\n      dup2\n      mstore\n      pop\n        /* \"contracts/calculator.sol\":314:349  additionHistory.push(add1(x,y,x+y)) */\n      swap1\n      dup1\n      0x01\n      dup2\n      sload\n      add\n      dup1\n      dup3\n      sstore\n      dup1\n      swap2\n      pop\n      pop\n      0x01\n      swap1\n      sub\n      swap1\n      0x00\n      mstore\n      keccak256(0x00, 0x20)\n      swap1\n      0x03\n      mul\n      add\n      0x00\n      swap1\n      swap2\n      swap1\n      swap2\n      swap1\n      swap2\n      pop\n      0x00\n      dup3\n      add\n      mload\n      dup2\n      0x00\n      add\n      sstore\n      0x20\n      dup3\n      add\n      mload\n      dup2\n      0x01\n      add\n      sstore\n      0x40\n      dup3\n      add\n      mload\n      dup2\n      0x02\n      add\n      sstore\n      pop\n      pop\n        /* \"contracts/calculator.sol\":242:361  function add(uint x, uint y) public {\r... */\n      pop\n      pop\n      jump\t// out\n        /* \"contracts/calculator.sol\":369:438  function sub(uint x, uint y) public {\r... */\n    tag_28:\n        /* \"contracts/calculator.sol\":429:430  y */\n      dup1\n        /* \"contracts/calculator.sol\":425:426  x */\n      dup3\n        /* \"contracts/calculator.sol\":425:430  x - y */\n      tag_44\n      swap2\n      swap1\n      tag_45\n      jump\t// in\n    tag_44:\n        /* \"contracts/calculator.sol\":416:422  result */\n      0x00\n        /* \"contracts/calculator.sol\":416:430  result = x - y */\n      dup2\n      swap1\n      sstore\n      pop\n        /* \"contracts/calculator.sol\":369:438  function sub(uint x, uint y) public {\r... */\n      pop\n      pop\n      jump\t// out\n        /* \"contracts/calculator.sol\":528:656  function divide(uint x, uint y) public {\r... */\n    tag_31:\n        /* \"contracts/calculator.sol\":589:590  0 */\n      0x00\n        /* \"contracts/calculator.sol\":586:587  y */\n      dup2\n        /* \"contracts/calculator.sol\":586:590  y!=0 */\n      eq\n      iszero\n        /* \"contracts/calculator.sol\":578:623  require(y!=0,'Division by zero not possible') */\n      tag_47\n      jumpi\n      mload(0x40)\n      0x08c379a000000000000000000000000000000000000000000000000000000000\n      dup2\n      mstore\n      0x04\n      add\n      tag_48\n      swap1\n      tag_49\n      jump\t// in\n    tag_48:\n      mload(0x40)\n      dup1\n      swap2\n      sub\n      swap1\n      revert\n    tag_47:\n        /* \"contracts/calculator.sol\":647:648  y */\n      dup1\n        /* \"contracts/calculator.sol\":643:644  x */\n      dup3\n        /* \"contracts/calculator.sol\":643:648  x / y */\n      tag_50\n      swap2\n      swap1\n      tag_51\n      jump\t// in\n    tag_50:\n        /* \"contracts/calculator.sol\":634:640  result */\n      0x00\n        /* \"contracts/calculator.sol\":634:648  result = x / y */\n      dup2\n      swap1\n      sstore\n      pop\n        /* \"contracts/calculator.sol\":528:656  function divide(uint x, uint y) public {\r... */\n      pop\n      pop\n      jump\t// out\n        /* \"#utility.yul\":7:146   */\n    tag_53:\n        /* \"#utility.yul\":53:58   */\n      0x00\n        /* \"#utility.yul\":91:97   */\n      dup2\n        /* \"#utility.yul\":78:98   */\n      calldataload\n        /* \"#utility.yul\":69:98   */\n      swap1\n      pop\n        /* \"#utility.yul\":107:140   */\n      tag_55\n        /* \"#utility.yul\":134:139   */\n      dup2\n        /* \"#utility.yul\":107:140   */\n      tag_56\n      jump\t// in\n    tag_55:\n        /* \"#utility.yul\":7:146   */\n      swap3\n      swap2\n      pop\n      pop\n      jump\t// out\n        /* \"#utility.yul\":152:481   */\n    tag_11:\n        /* \"#utility.yul\":211:217   */\n      0x00\n        /* \"#utility.yul\":260:262   */\n      0x20\n        /* \"#utility.yul\":248:257   */\n      dup3\n        /* \"#utility.yul\":239:246   */\n      dup5\n        /* \"#utility.yul\":235:258   */\n      sub\n        /* \"#utility.yul\":231:263   */\n      slt\n        /* \"#utility.yul\":228:347   */\n      iszero\n      tag_58\n      jumpi\n        /* \"#utility.yul\":266:345   */\n      tag_59\n      tag_60\n      jump\t// in\n    tag_59:\n        /* \"#utility.yul\":228:347   */\n    tag_58:\n        /* \"#utility.yul\":386:387   */\n      0x00\n        /* \"#utility.yul\":411:464   */\n      tag_61\n        /* \"#utility.yul\":456:463   */\n      dup5\n        /* \"#utility.yul\":447:453   */\n      dup3\n        /* \"#utility.yul\":436:445   */\n      dup6\n        /* \"#utility.yul\":432:454   */\n      add\n        /* \"#utility.yul\":411:464   */\n      tag_53\n      jump\t// in\n    tag_61:\n        /* \"#utility.yul\":401:464   */\n      swap2\n      pop\n        /* \"#utility.yul\":357:474   */\n      pop\n        /* \"#utility.yul\":152:481   */\n      swap3\n      swap2\n      pop\n      pop\n      jump\t// out\n        /* \"#utility.yul\":487:961   */\n    tag_17:\n        /* \"#utility.yul\":555:561   */\n      0x00\n        /* \"#utility.yul\":563:569   */\n      dup1\n        /* \"#utility.yul\":612:614   */\n      0x40\n        /* \"#utility.yul\":600:609   */\n      dup4\n        /* \"#utility.yul\":591:598   */\n      dup6\n        /* \"#utility.yul\":587:610   */\n      sub\n        /* \"#utility.yul\":583:615   */\n      slt\n        /* \"#utility.yul\":580:699   */\n      iszero\n      tag_63\n      jumpi\n        /* \"#utility.yul\":618:697   */\n      tag_64\n      tag_60\n      jump\t// in\n    tag_64:\n        /* \"#utility.yul\":580:699   */\n    tag_63:\n        /* \"#utility.yul\":738:739   */\n      0x00\n        /* \"#utility.yul\":763:816   */\n      tag_65\n        /* \"#utility.yul\":808:815   */\n      dup6\n        /* \"#utility.yul\":799:805   */\n      dup3\n        /* \"#utility.yul\":788:797   */\n      dup7\n        /* \"#utility.yul\":784:806   */\n      add\n        /* \"#utility.yul\":763:816   */\n      tag_53\n      jump\t// in\n    tag_65:\n        /* \"#utility.yul\":753:816   */\n      swap3\n      pop\n        /* \"#utility.yul\":709:826   */\n      pop\n        /* \"#utility.yul\":865:867   */\n      0x20\n        /* \"#utility.yul\":891:944   */\n      tag_66\n        /* \"#utility.yul\":936:943   */\n      dup6\n        /* \"#utility.yul\":927:933   */\n      dup3\n        /* \"#utility.yul\":916:925   */\n      dup7\n        /* \"#utility.yul\":912:934   */\n      add\n        /* \"#utility.yul\":891:944   */\n      tag_53\n      jump\t// in\n    tag_66:\n        /* \"#utility.yul\":881:944   */\n      swap2\n      pop\n        /* \"#utility.yul\":836:954   */\n      pop\n        /* \"#utility.yul\":487:961   */\n      swap3\n      pop\n      swap3\n      swap1\n      pop\n      jump\t// out\n        /* \"#utility.yul\":967:1333   */\n    tag_67:\n        /* \"#utility.yul\":1109:1112   */\n      0x00\n        /* \"#utility.yul\":1130:1197   */\n      tag_69\n        /* \"#utility.yul\":1194:1196   */\n      0x1d\n        /* \"#utility.yul\":1189:1192   */\n      dup4\n        /* \"#utility.yul\":1130:1197   */\n      tag_70\n      jump\t// in\n    tag_69:\n        /* \"#utility.yul\":1123:1197   */\n      swap2\n      pop\n        /* \"#utility.yul\":1206:1299   */\n      tag_71\n        /* \"#utility.yul\":1295:1298   */\n      dup3\n        /* \"#utility.yul\":1206:1299   */\n      tag_72\n      jump\t// in\n    tag_71:\n        /* \"#utility.yul\":1324:1326   */\n      0x20\n        /* \"#utility.yul\":1319:1322   */\n      dup3\n        /* \"#utility.yul\":1315:1327   */\n      add\n        /* \"#utility.yul\":1308:1327   */\n      swap1\n      pop\n        /* \"#utility.yul\":967:1333   */\n      swap2\n      swap1\n      pop\n      jump\t// out\n        /* \"#utility.yul\":1339:1457   */\n    tag_73:\n        /* \"#utility.yul\":1426:1450   */\n      tag_75\n        /* \"#utility.yul\":1444:1449   */\n      dup2\n        /* \"#utility.yul\":1426:1450   */\n      tag_76\n      jump\t// in\n    tag_75:\n        /* \"#utility.yul\":1421:1424   */\n      dup3\n        /* \"#utility.yul\":1414:1451   */\n      mstore\n        /* \"#utility.yul\":1339:1457   */\n      pop\n      pop\n      jump\t// out\n        /* \"#utility.yul\":1463:1882   */\n    tag_49:\n        /* \"#utility.yul\":1629:1633   */\n      0x00\n        /* \"#utility.yul\":1667:1669   */\n      0x20\n        /* \"#utility.yul\":1656:1665   */\n      dup3\n        /* \"#utility.yul\":1652:1670   */\n      add\n        /* \"#utility.yul\":1644:1670   */\n      swap1\n      pop\n        /* \"#utility.yul\":1716:1725   */\n      dup2\n        /* \"#utility.yul\":1710:1714   */\n      dup2\n        /* \"#utility.yul\":1706:1726   */\n      sub\n        /* \"#utility.yul\":1702:1703   */\n      0x00\n        /* \"#utility.yul\":1691:1700   */\n      dup4\n        /* \"#utility.yul\":1687:1704   */\n      add\n        /* \"#utility.yul\":1680:1727   */\n      mstore\n        /* \"#utility.yul\":1744:1875   */\n      tag_78\n        /* \"#utility.yul\":1870:1874   */\n      dup2\n        /* \"#utility.yul\":1744:1875   */\n      tag_67\n      jump\t// in\n    tag_78:\n        /* \"#utility.yul\":1736:1875   */\n      swap1\n      pop\n        /* \"#utility.yul\":1463:1882   */\n      swap2\n      swap1\n      pop\n      jump\t// out\n        /* \"#utility.yul\":1888:2110   */\n    tag_22:\n        /* \"#utility.yul\":1981:1985   */\n      0x00\n        /* \"#utility.yul\":2019:2021   */\n      0x20\n        /* \"#utility.yul\":2008:2017   */\n      dup3\n        /* \"#utility.yul\":2004:2022   */\n      add\n        /* \"#utility.yul\":1996:2022   */\n      swap1\n      pop\n        /* \"#utility.yul\":2032:2103   */\n      tag_80\n        /* \"#utility.yul\":2100:2101   */\n      0x00\n        /* \"#utility.yul\":2089:2098   */\n      dup4\n        /* \"#utility.yul\":2085:2102   */\n      add\n        /* \"#utility.yul\":2076:2082   */\n      dup5\n        /* \"#utility.yul\":2032:2103   */\n      tag_73\n      jump\t// in\n    tag_80:\n        /* \"#utility.yul\":1888:2110   */\n      swap3\n      swap2\n      pop\n      pop\n      jump\t// out\n        /* \"#utility.yul\":2116:2558   */\n    tag_14:\n        /* \"#utility.yul\":2265:2269   */\n      0x00\n        /* \"#utility.yul\":2303:2305   */\n      0x60\n        /* \"#utility.yul\":2292:2301   */\n      dup3\n        /* \"#utility.yul\":2288:2306   */\n      add\n        /* \"#utility.yul\":2280:2306   */\n      swap1\n      pop\n        /* \"#utility.yul\":2316:2387   */\n      tag_82\n        /* \"#utility.yul\":2384:2385   */\n      0x00\n        /* \"#utility.yul\":2373:2382   */\n      dup4\n        /* \"#utility.yul\":2369:2386   */\n      add\n        /* \"#utility.yul\":2360:2366   */\n      dup7\n        /* \"#utility.yul\":2316:2387   */\n      tag_73\n      jump\t// in\n    tag_82:\n        /* \"#utility.yul\":2397:2469   */\n      tag_83\n        /* \"#utility.yul\":2465:2467   */\n      0x20\n        /* \"#utility.yul\":2454:2463   */\n      dup4\n        /* \"#utility.yul\":2450:2468   */\n      add\n        /* \"#utility.yul\":2441:2447   */\n      dup6\n        /* \"#utility.yul\":2397:2469   */\n      tag_73\n      jump\t// in\n    tag_83:\n        /* \"#utility.yul\":2479:2551   */\n      tag_84\n        /* \"#utility.yul\":2547:2549   */\n      0x40\n        /* \"#utility.yul\":2536:2545   */\n      dup4\n        /* \"#utility.yul\":2532:2550   */\n      add\n        /* \"#utility.yul\":2523:2529   */\n      dup5\n        /* \"#utility.yul\":2479:2551   */\n      tag_73\n      jump\t// in\n    tag_84:\n        /* \"#utility.yul\":2116:2558   */\n      swap5\n      swap4\n      pop\n      pop\n      pop\n      pop\n      jump\t// out\n        /* \"#utility.yul\":2645:2814   */\n    tag_70:\n        /* \"#utility.yul\":2729:2740   */\n      0x00\n        /* \"#utility.yul\":2763:2769   */\n      dup3\n        /* \"#utility.yul\":2758:2761   */\n      dup3\n        /* \"#utility.yul\":2751:2770   */\n      mstore\n        /* \"#utility.yul\":2803:2807   */\n      0x20\n        /* \"#utility.yul\":2798:2801   */\n      dup3\n        /* \"#utility.yul\":2794:2808   */\n      add\n        /* \"#utility.yul\":2779:2808   */\n      swap1\n      pop\n        /* \"#utility.yul\":2645:2814   */\n      swap3\n      swap2\n      pop\n      pop\n      jump\t// out\n        /* \"#utility.yul\":2820:3125   */\n    tag_40:\n        /* \"#utility.yul\":2860:2863   */\n      0x00\n        /* \"#utility.yul\":2879:2899   */\n      tag_89\n        /* \"#utility.yul\":2897:2898   */\n      dup3\n        /* \"#utility.yul\":2879:2899   */\n      tag_76\n      jump\t// in\n    tag_89:\n        /* \"#utility.yul\":2874:2899   */\n      swap2\n      pop\n        /* \"#utility.yul\":2913:2933   */\n      tag_90\n        /* \"#utility.yul\":2931:2932   */\n      dup4\n        /* \"#utility.yul\":2913:2933   */\n      tag_76\n      jump\t// in\n    tag_90:\n        /* \"#utility.yul\":2908:2933   */\n      swap3\n      pop\n        /* \"#utility.yul\":3067:3068   */\n      dup3\n        /* \"#utility.yul\":2999:3065   */\n      0xffffffffffffffffffffffffffffffffffffffffffffffffffffffffffffffff\n        /* \"#utility.yul\":2995:3069   */\n      sub\n        /* \"#utility.yul\":2992:2993   */\n      dup3\n        /* \"#utility.yul\":2989:3070   */\n      gt\n        /* \"#utility.yul\":2986:3093   */\n      iszero\n      tag_91\n      jumpi\n        /* \"#utility.yul\":3073:3091   */\n      tag_92\n      tag_93\n      jump\t// in\n    tag_92:\n        /* \"#utility.yul\":2986:3093   */\n    tag_91:\n        /* \"#utility.yul\":3117:3118   */\n      dup3\n        /* \"#utility.yul\":3114:3115   */\n      dup3\n        /* \"#utility.yul\":3110:3119   */\n      add\n        /* \"#utility.yul\":3103:3119   */\n      swap1\n      pop\n        /* \"#utility.yul\":2820:3125   */\n      swap3\n      swap2\n      pop\n      pop\n      jump\t// out\n        /* \"#utility.yul\":3131:3316   */\n    tag_51:\n        /* \"#utility.yul\":3171:3172   */\n      0x00\n        /* \"#utility.yul\":3188:3208   */\n      tag_95\n        /* \"#utility.yul\":3206:3207   */\n      dup3\n        /* \"#utility.yul\":3188:3208   */\n      tag_76\n      jump\t// in\n    tag_95:\n        /* \"#utility.yul\":3183:3208   */\n      swap2\n      pop\n        /* \"#utility.yul\":3222:3242   */\n      tag_96\n        /* \"#utility.yul\":3240:3241   */\n      dup4\n        /* \"#utility.yul\":3222:3242   */\n      tag_76\n      jump\t// in\n    tag_96:\n        /* \"#utility.yul\":3217:3242   */\n      swap3\n      pop\n        /* \"#utility.yul\":3261:3262   */\n      dup3\n        /* \"#utility.yul\":3251:3286   */\n      tag_97\n      jumpi\n        /* \"#utility.yul\":3266:3284   */\n      tag_98\n      tag_99\n      jump\t// in\n    tag_98:\n        /* \"#utility.yul\":3251:3286   */\n    tag_97:\n        /* \"#utility.yul\":3308:3309   */\n      dup3\n        /* \"#utility.yul\":3305:3306   */\n      dup3\n        /* \"#utility.yul\":3301:3310   */\n      div\n        /* \"#utility.yul\":3296:3310   */\n      swap1\n      pop\n        /* \"#utility.yul\":3131:3316   */\n      swap3\n      swap2\n      pop\n      pop\n      jump\t// out\n        /* \"#utility.yul\":3322:3670   */\n    tag_36:\n        /* \"#utility.yul\":3362:3369   */\n      0x00\n        /* \"#utility.yul\":3385:3405   */\n      tag_101\n        /* \"#utility.yul\":3403:3404   */\n      dup3\n        /* \"#utility.yul\":3385:3405   */\n      tag_76\n      jump\t// in\n    tag_101:\n        /* \"#utility.yul\":3380:3405   */\n      swap2\n      pop\n        /* \"#utility.yul\":3419:3439   */\n      tag_102\n        /* \"#utility.yul\":3437:3438   */\n      dup4\n        /* \"#utility.yul\":3419:3439   */\n      tag_76\n      jump\t// in\n    tag_102:\n        /* \"#utility.yul\":3414:3439   */\n      swap3\n      pop\n        /* \"#utility.yul\":3607:3608   */\n      dup2\n        /* \"#utility.yul\":3539:3605   */\n      0xffffffffffffffffffffffffffffffffffffffffffffffffffffffffffffffff\n        /* \"#utility.yul\":3535:3609   */\n      div\n        /* \"#utility.yul\":3532:3533   */\n      dup4\n        /* \"#utility.yul\":3529:3610   */\n      gt\n        /* \"#utility.yul\":3524:3525   */\n      dup3\n        /* \"#utility.yul\":3517:3526   */\n      iszero\n        /* \"#utility.yul\":3510:3527   */\n      iszero\n        /* \"#utility.yul\":3506:3611   */\n      and\n        /* \"#utility.yul\":3503:3634   */\n      iszero\n      tag_103\n      jumpi\n        /* \"#utility.yul\":3614:3632   */\n      tag_104\n      tag_93\n      jump\t// in\n    tag_104:\n        /* \"#utility.yul\":3503:3634   */\n    tag_103:\n        /* \"#utility.yul\":3662:3663   */\n      dup3\n        /* \"#utility.yul\":3659:3660   */\n      dup3\n        /* \"#utility.yul\":3655:3664   */\n      mul\n        /* \"#utility.yul\":3644:3664   */\n      swap1\n      pop\n        /* \"#utility.yul\":3322:3670   */\n      swap3\n      swap2\n      pop\n      pop\n      jump\t// out\n        /* \"#utility.yul\":3676:3867   */\n    tag_45:\n        /* \"#utility.yul\":3716:3720   */\n      0x00\n        /* \"#utility.yul\":3736:3756   */\n      tag_106\n        /* \"#utility.yul\":3754:3755   */\n      dup3\n        /* \"#utility.yul\":3736:3756   */\n      tag_76\n      jump\t// in\n    tag_106:\n        /* \"#utility.yul\":3731:3756   */\n      swap2\n      pop\n        /* \"#utility.yul\":3770:3790   */\n      tag_107\n        /* \"#utility.yul\":3788:3789   */\n      dup4\n        /* \"#utility.yul\":3770:3790   */\n      tag_76\n      jump\t// in\n    tag_107:\n        /* \"#utility.yul\":3765:3790   */\n      swap3\n      pop\n        /* \"#utility.yul\":3809:3810   */\n      dup3\n        /* \"#utility.yul\":3806:3807   */\n      dup3\n        /* \"#utility.yul\":3803:3811   */\n      lt\n        /* \"#utility.yul\":3800:3834   */\n      iszero\n      tag_108\n      jumpi\n        /* \"#utility.yul\":3814:3832   */\n      tag_109\n      tag_93\n      jump\t// in\n    tag_109:\n        /* \"#utility.yul\":3800:3834   */\n    tag_108:\n        /* \"#utility.yul\":3859:3860   */\n      dup3\n        /* \"#utility.yul\":3856:3857   */\n      dup3\n        /* \"#utility.yul\":3852:3861   */\n      sub\n        /* \"#utility.yul\":3844:3861   */\n      swap1\n      pop\n        /* \"#utility.yul\":3676:3867   */\n      swap3\n      swap2\n      pop\n      pop\n      jump\t// out\n        /* \"#utility.yul\":3873:3950   */\n    tag_76:\n        /* \"#utility.yul\":3910:3917   */\n      0x00\n        /* \"#utility.yul\":3939:3944   */\n      dup2\n        /* \"#utility.yul\":3928:3944   */\n      swap1\n      pop\n        /* \"#utility.yul\":3873:3950   */\n      swap2\n      swap1\n      pop\n      jump\t// out\n        /* \"#utility.yul\":3956:4136   */\n    tag_93:\n        /* \"#utility.yul\":4004:4081   */\n      0x4e487b7100000000000000000000000000000000000000000000000000000000\n        /* \"#utility.yul\":4001:4002   */\n      0x00\n        /* \"#utility.yul\":3994:4082   */\n      mstore\n        /* \"#utility.yul\":4101:4105   */\n      0x11\n        /* \"#utility.yul\":4098:4099   */\n      0x04\n        /* \"#utility.yul\":4091:4106   */\n      mstore\n        /* \"#utility.yul\":4125:4129   */\n      0x24\n        /* \"#utility.yul\":4122:4123   */\n      0x00\n        /* \"#utility.yul\":4115:4130   */\n      revert\n        /* \"#utility.yul\":4142:4322   */\n    tag_99:\n        /* \"#utility.yul\":4190:4267   */\n      0x4e487b7100000000000000000000000000000000000000000000000000000000\n        /* \"#utility.yul\":4187:4188   */\n      0x00\n        /* \"#utility.yul\":4180:4268   */\n      mstore\n        /* \"#utility.yul\":4287:4291   */\n      0x12\n        /* \"#utility.yul\":4284:4285   */\n      0x04\n        /* \"#utility.yul\":4277:4292   */\n      mstore\n        /* \"#utility.yul\":4311:4315   */\n      0x24\n        /* \"#utility.yul\":4308:4309   */\n      0x00\n        /* \"#utility.yul\":4301:4316   */\n      revert\n        /* \"#utility.yul\":4451:4568   */\n    tag_60:\n        /* \"#utility.yul\":4560:4561   */\n      0x00\n        /* \"#utility.yul\":4557:4558   */\n      dup1\n        /* \"#utility.yul\":4550:4562   */\n      revert\n        /* \"#utility.yul\":4574:4753   */\n    tag_72:\n        /* \"#utility.yul\":4714:4745   */\n      0x4469766973696f6e206279207a65726f206e6f7420706f737369626c65000000\n        /* \"#utility.yul\":4710:4711   */\n      0x00\n        /* \"#utility.yul\":4702:4708   */\n      dup3\n        /* \"#utility.yul\":4698:4712   */\n      add\n        /* \"#utility.yul\":4691:4746   */\n      mstore\n        /* \"#utility.yul\":4574:4753   */\n      pop\n      jump\t// out\n        /* \"#utility.yul\":4759:4881   */\n    tag_56:\n        /* \"#utility.yul\":4832:4856   */\n      tag_118\n        /* \"#utility.yul\":4850:4855   */\n      dup2\n        /* \"#utility.yul\":4832:4856   */\n      tag_76\n      jump\t// in\n    tag_118:\n        /* \"#utility.yul\":4825:4830   */\n      dup2\n        /* \"#utility.yul\":4822:4857   */\n      eq\n        /* \"#utility.yul\":4812:4875   */\n      tag_119\n      jumpi\n        /* \"#utility.yul\":4871:4872   */\n      0x00\n        /* \"#utility.yul\":4868:4869   */\n      dup1\n        /* \"#utility.yul\":4861:4873   */\n      revert\n        /* \"#utility.yul\":4812:4875   */\n    tag_119:\n        /* \"#utility.yul\":4759:4881   */\n      pop\n      jump\t// out\n\n    auxdata: 0xa2646970667358221220c6a75bbb0c24e9215dd1002fd3ca49eb13ce3c4e865cbfd5179e3c4f11bddb4c64736f6c63430008070033\n}\n",
				"bytecode": {
					"linkReferences": {},
					"object": "608060405234801561001057600080fd5b506105a6806100206000396000f3fe608060405234801561001057600080fd5b50600436106100625760003560e01c80630e08e1b014610067578063165c4a16146100995780636d4ce63c146100b5578063771602f7146100d3578063b67d77c5146100ef578063f88e9fbf1461010b575b600080fd5b610081600480360381019061007c919061028c565b610127565b60405161009093929190610366565b60405180910390f35b6100b360048036038101906100ae91906102b9565b610161565b005b6100bd610177565b6040516100ca919061034b565b60405180910390f35b6100ed60048036038101906100e891906102b9565b610180565b005b610109600480360381019061010491906102b9565b610207565b005b610125600480360381019061012091906102b9565b61021d565b005b6001818154811061013757600080fd5b90600052602060002090600302016000915090508060000154908060010154908060020154905083565b808261016d9190610435565b6000819055505050565b60008054905090565b808261018c91906103ae565b6000819055506001604051806060016040528084815260200183815260200183856101b791906103ae565b815250908060018154018082558091505060019003906000526020600020906003020160009091909190915060008201518160000155602082015181600101556040820151816002015550505050565b8082610213919061048f565b6000819055505050565b6000811415610261576040517f08c379a00000000000000000000000000000000000000000000000000000000081526004016102589061032b565b60405180910390fd5b808261026d9190610404565b6000819055505050565b60008135905061028681610559565b92915050565b6000602082840312156102a2576102a161052b565b5b60006102b084828501610277565b91505092915050565b600080604083850312156102d0576102cf61052b565b5b60006102de85828601610277565b92505060206102ef85828601610277565b9150509250929050565b6000610306601d8361039d565b915061031182610530565b602082019050919050565b610325816104c3565b82525050565b60006020820190508181036000830152610344816102f9565b9050919050565b6000602082019050610360600083018461031c565b92915050565b600060608201905061037b600083018661031c565b610388602083018561031c565b610395604083018461031c565b949350505050565b600082825260208201905092915050565b60006103b9826104c3565b91506103c4836104c3565b9250827fffffffffffffffffffffffffffffffffffffffffffffffffffffffffffffffff038211156103f9576103f86104cd565b5b828201905092915050565b600061040f826104c3565b915061041a836104c3565b92508261042a576104296104fc565b5b828204905092915050565b6000610440826104c3565b915061044b836104c3565b9250817fffffffffffffffffffffffffffffffffffffffffffffffffffffffffffffffff0483118215151615610484576104836104cd565b5b828202905092915050565b600061049a826104c3565b91506104a5836104c3565b9250828210156104b8576104b76104cd565b5b828203905092915050565b6000819050919050565b7f4e487b7100000000000000000000000000000000000000000000000000000000600052601160045260246000fd5b7f4e487b7100000000000000000000000000000000000000000000000000000000600052601260045260246000fd5b600080fd5b7f4469766973696f6e206279207a65726f206e6f7420706f737369626c65000000600082015250565b610562816104c3565b811461056d57600080fd5b5056fea2646970667358221220c6a75bbb0c24e9215dd1002fd3ca49eb13ce3c4e865cbfd5179e3c4f11bddb4c64736f6c63430008070033",
					"opcodes": "PUSH1 0x80 PUSH1 0x40 MSTORE CALLVALUE DUP1 ISZERO PUSH2 0x10 JUMPI PUSH1 0x0 DUP1 REVERT JUMPDEST POP PUSH2 0x5A6 DUP1 PUSH2 0x20 PUSH1 0x0 CODECOPY PUSH1 0x0 RETURN INVALID PUSH1 0x80 PUSH1 0x40 MSTORE CALLVALUE DUP1 ISZERO PUSH2 0x10 JUMPI PUSH1 0x0 DUP1 REVERT JUMPDEST POP PUSH1 0x4 CALLDATASIZE LT PUSH2 0x62 JUMPI PUSH1 0x0 CALLDATALOAD PUSH1 0xE0 SHR DUP1 PUSH4 0xE08E1B0 EQ PUSH2 0x67 JUMPI DUP1 PUSH4 0x165C4A16 EQ PUSH2 0x99 JUMPI DUP1 PUSH4 0x6D4CE63C EQ PUSH2 0xB5 JUMPI DUP1 PUSH4 0x771602F7 EQ PUSH2 0xD3 JUMPI DUP1 PUSH4 0xB67D77C5 EQ PUSH2 0xEF JUMPI DUP1 PUSH4 0xF88E9FBF EQ PUSH2 0x10B JUMPI JUMPDEST PUSH1 0x0 DUP1 REVERT JUMPDEST PUSH2 0x81 PUSH1 0x4 DUP1 CALLDATASIZE SUB DUP2 ADD SWAP1 PUSH2 0x7C SWAP2 SWAP1 PUSH2 0x28C JUMP JUMPDEST PUSH2 0x127 JUMP JUMPDEST PUSH1 0x40 MLOAD PUSH2 0x90 SWAP4 SWAP3 SWAP2 SWAP1 PUSH2 0x366 JUMP JUMPDEST PUSH1 0x40 MLOAD DUP1 SWAP2 SUB SWAP1 RETURN JUMPDEST PUSH2 0xB3 PUSH1 0x4 DUP1 CALLDATASIZE SUB DUP2 ADD SWAP1 PUSH2 0xAE SWAP2 SWAP1 PUSH2 0x2B9 JUMP JUMPDEST PUSH2 0x161 JUMP JUMPDEST STOP JUMPDEST PUSH2 0xBD PUSH2 0x177 JUMP JUMPDEST PUSH1 0x40 MLOAD PUSH2 0xCA SWAP2 SWAP1 PUSH2 0x34B JUMP JUMPDEST PUSH1 0x40 MLOAD DUP1 SWAP2 SUB SWAP1 RETURN JUMPDEST PUSH2 0xED PUSH1 0x4 DUP1 CALLDATASIZE SUB DUP2 ADD SWAP1 PUSH2 0xE8 SWAP2 SWAP1 PUSH2 0x2B9 JUMP JUMPDEST PUSH2 0x180 JUMP JUMPDEST STOP JUMPDEST PUSH2 0x109 PUSH1 0x4 DUP1 CALLDATASIZE SUB DUP2 ADD SWAP1 PUSH2 0x104 SWAP2 SWAP1 PUSH2 0x2B9 JUMP JUMPDEST PUSH2 0x207 JUMP JUMPDEST STOP JUMPDEST PUSH2 0x125 PUSH1 0x4 DUP1 CALLDATASIZE SUB DUP2 ADD SWAP1 PUSH2 0x120 SWAP2 SWAP1 PUSH2 0x2B9 JUMP JUMPDEST PUSH2 0x21D JUMP JUMPDEST STOP JUMPDEST PUSH1 0x1 DUP2 DUP2 SLOAD DUP2 LT PUSH2 0x137 JUMPI PUSH1 0x0 DUP1 REVERT JUMPDEST SWAP1 PUSH1 0x0 MSTORE PUSH1 0x20 PUSH1 0x0 KECCAK256 SWAP1 PUSH1 0x3 MUL ADD PUSH1 0x0 SWAP2 POP SWAP1 POP DUP1 PUSH1 0x0 ADD SLOAD SWAP1 DUP1 PUSH1 0x1 ADD SLOAD SWAP1 DUP1 PUSH1 0x2 ADD SLOAD SWAP1 POP DUP4 JUMP JUMPDEST DUP1 DUP3 PUSH2 0x16D SWAP2 SWAP1 PUSH2 0x435 JUMP JUMPDEST PUSH1 0x0 DUP2 SWAP1 SSTORE POP POP POP JUMP JUMPDEST PUSH1 0x0 DUP1 SLOAD SWAP1 POP SWAP1 JUMP JUMPDEST DUP1 DUP3 PUSH2 0x18C SWAP2 SWAP1 PUSH2 0x3AE JUMP JUMPDEST PUSH1 0x0 DUP2 SWAP1 SSTORE POP PUSH1 0x1 PUSH1 0x40 MLOAD DUP1 PUSH1 0x60 ADD PUSH1 0x40 MSTORE DUP1 DUP5 DUP2 MSTORE PUSH1 0x20 ADD DUP4 DUP2 MSTORE PUSH1 0x20 ADD DUP4 DUP6 PUSH2 0x1B7 SWAP2 SWAP1 PUSH2 0x3AE JUMP JUMPDEST DUP2 MSTORE POP SWAP1 DUP1 PUSH1 0x1 DUP2 SLOAD ADD DUP1 DUP3 SSTORE DUP1 SWAP2 POP POP PUSH1 0x1 SWAP1 SUB SWAP1 PUSH1 0x0 MSTORE PUSH1 0x20 PUSH1 0x0 KECCAK256 SWAP1 PUSH1 0x3 MUL ADD PUSH1 0x0 SWAP1 SWAP2 SWAP1 SWAP2 SWAP1 SWAP2 POP PUSH1 0x0 DUP3 ADD MLOAD DUP2 PUSH1 0x0 ADD SSTORE PUSH1 0x20 DUP3 ADD MLOAD DUP2 PUSH1 0x1 ADD SSTORE PUSH1 0x40 DUP3 ADD MLOAD DUP2 PUSH1 0x2 ADD SSTORE POP POP POP POP JUMP JUMPDEST DUP1 DUP3 PUSH2 0x213 SWAP2 SWAP1 PUSH2 0x48F JUMP JUMPDEST PUSH1 0x0 DUP2 SWAP1 SSTORE POP POP POP JUMP JUMPDEST PUSH1 0x0 DUP2 EQ ISZERO PUSH2 0x261 JUMPI PUSH1 0x40 MLOAD PUSH32 0x8C379A000000000000000000000000000000000000000000000000000000000 DUP2 MSTORE PUSH1 0x4 ADD PUSH2 0x258 SWAP1 PUSH2 0x32B JUMP JUMPDEST PUSH1 0x40 MLOAD DUP1 SWAP2 SUB SWAP1 REVERT JUMPDEST DUP1 DUP3 PUSH2 0x26D SWAP2 SWAP1 PUSH2 0x404 JUMP JUMPDEST PUSH1 0x0 DUP2 SWAP1 SSTORE POP POP POP JUMP JUMPDEST PUSH1 0x0 DUP2 CALLDATALOAD SWAP1 POP PUSH2 0x286 DUP2 PUSH2 0x559 JUMP JUMPDEST SWAP3 SWAP2 POP POP JUMP JUMPDEST PUSH1 0x0 PUSH1 0x20 DUP3 DUP5 SUB SLT ISZERO PUSH2 0x2A2 JUMPI PUSH2 0x2A1 PUSH2 0x52B JUMP JUMPDEST JUMPDEST PUSH1 0x0 PUSH2 0x2B0 DUP5 DUP3 DUP6 ADD PUSH2 0x277 JUMP JUMPDEST SWAP2 POP POP SWAP3 SWAP2 POP POP JUMP JUMPDEST PUSH1 0x0 DUP1 PUSH1 0x40 DUP4 DUP6 SUB SLT ISZERO PUSH2 0x2D0 JUMPI PUSH2 0x2CF PUSH2 0x52B JUMP JUMPDEST JUMPDEST PUSH1 0x0 PUSH2 0x2DE DUP6 DUP3 DUP7 ADD PUSH2 0x277 JUMP JUMPDEST SWAP3 POP POP PUSH1 0x20 PUSH2 0x2EF DUP6 DUP3 DUP7 ADD PUSH2 0x277 JUMP JUMPDEST SWAP2 POP POP SWAP3 POP SWAP3 SWAP1 POP JUMP JUMPDEST PUSH1 0x0 PUSH2 0x306 PUSH1 0x1D DUP4 PUSH2 0x39D JUMP JUMPDEST SWAP2 POP PUSH2 0x311 DUP3 PUSH2 0x530 JUMP JUMPDEST PUSH1 0x20 DUP3 ADD SWAP1 POP SWAP2 SWAP1 POP JUMP JUMPDEST PUSH2 0x325 DUP2 PUSH2 0x4C3 JUMP JUMPDEST DUP3 MSTORE POP POP JUMP JUMPDEST PUSH1 0x0 PUSH1 0x20 DUP3 ADD SWAP1 POP DUP2 DUP2 SUB PUSH1 0x0 DUP4 ADD MSTORE PUSH2 0x344 DUP2 PUSH2 0x2F9 JUMP JUMPDEST SWAP1 POP SWAP2 SWAP1 POP JUMP JUMPDEST PUSH1 0x0 PUSH1 0x20 DUP3 ADD SWAP1 POP PUSH2 0x360 PUSH1 0x0 DUP4 ADD DUP5 PUSH2 0x31C JUMP JUMPDEST SWAP3 SWAP2 POP POP JUMP JUMPDEST PUSH1 0x0 PUSH1 0x60 DUP3 ADD SWAP1 POP PUSH2 0x37B PUSH1 0x0 DUP4 ADD DUP7 PUSH2 0x31C JUMP JUMPDEST PUSH2 0x388 PUSH1 0x20 DUP4 ADD DUP6 PUSH2 0x31C JUMP JUMPDEST PUSH2 0x395 PUSH1 0x40 DUP4 ADD DUP5 PUSH2 0x31C JUMP JUMPDEST SWAP5 SWAP4 POP POP POP POP JUMP JUMPDEST PUSH1 0x0 DUP3 DUP3 MSTORE PUSH1 0x20 DUP3 ADD SWAP1 POP SWAP3 SWAP2 POP POP JUMP JUMPDEST PUSH1 0x0 PUSH2 0x3B9 DUP3 PUSH2 0x4C3 JUMP JUMPDEST SWAP2 POP PUSH2 0x3C4 DUP4 PUSH2 0x4C3 JUMP JUMPDEST SWAP3 POP DUP3 PUSH32 0xFFFFFFFFFFFFFFFFFFFFFFFFFFFFFFFFFFFFFFFFFFFFFFFFFFFFFFFFFFFFFFFF SUB DUP3 GT ISZERO PUSH2 0x3F9 JUMPI PUSH2 0x3F8 PUSH2 0x4CD JUMP JUMPDEST JUMPDEST DUP3 DUP3 ADD SWAP1 POP SWAP3 SWAP2 POP POP JUMP JUMPDEST PUSH1 0x0 PUSH2 0x40F DUP3 PUSH2 0x4C3 JUMP JUMPDEST SWAP2 POP PUSH2 0x41A DUP4 PUSH2 0x4C3 JUMP JUMPDEST SWAP3 POP DUP3 PUSH2 0x42A JUMPI PUSH2 0x429 PUSH2 0x4FC JUMP JUMPDEST JUMPDEST DUP3 DUP3 DIV SWAP1 POP SWAP3 SWAP2 POP POP JUMP JUMPDEST PUSH1 0x0 PUSH2 0x440 DUP3 PUSH2 0x4C3 JUMP JUMPDEST SWAP2 POP PUSH2 0x44B DUP4 PUSH2 0x4C3 JUMP JUMPDEST SWAP3 POP DUP2 PUSH32 0xFFFFFFFFFFFFFFFFFFFFFFFFFFFFFFFFFFFFFFFFFFFFFFFFFFFFFFFFFFFFFFFF DIV DUP4 GT DUP3 ISZERO ISZERO AND ISZERO PUSH2 0x484 JUMPI PUSH2 0x483 PUSH2 0x4CD JUMP JUMPDEST JUMPDEST DUP3 DUP3 MUL SWAP1 POP SWAP3 SWAP2 POP POP JUMP JUMPDEST PUSH1 0x0 PUSH2 0x49A DUP3 PUSH2 0x4C3 JUMP JUMPDEST SWAP2 POP PUSH2 0x4A5 DUP4 PUSH2 0x4C3 JUMP JUMPDEST SWAP3 POP DUP3 DUP3 LT ISZERO PUSH2 0x4B8 JUMPI PUSH2 0x4B7 PUSH2 0x4CD JUMP JUMPDEST JUMPDEST DUP3 DUP3 SUB SWAP1 POP SWAP3 SWAP2 POP POP JUMP JUMPDEST PUSH1 0x0 DUP2 SWAP1 POP SWAP2 SWAP1 POP JUMP JUMPDEST PUSH32 0x4E487B7100000000000000000000000000000000000000000000000000000000 PUSH1 0x0 MSTORE PUSH1 0x11 PUSH1 0x4 MSTORE PUSH1 0x24 PUSH1 0x0 REVERT JUMPDEST PUSH32 0x4E487B7100000000000000000000000000000000000000000000000000000000 PUSH1 0x0 MSTORE PUSH1 0x12 PUSH1 0x4 MSTORE PUSH1 0x24 PUSH1 0x0 REVERT JUMPDEST PUSH1 0x0 DUP1 REVERT JUMPDEST PUSH32 0x4469766973696F6E206279207A65726F206E6F7420706F737369626C65000000 PUSH1 0x0 DUP3 ADD MSTORE POP JUMP JUMPDEST PUSH2 0x562 DUP2 PUSH2 0x4C3 JUMP JUMPDEST DUP2 EQ PUSH2 0x56D JUMPI PUSH1 0x0 DUP1 REVERT JUMPDEST POP JUMP INVALID LOG2 PUSH5 0x6970667358 0x22 SLT KECCAK256 0xC6 0xA7 JUMPDEST 0xBB 0xC 0x24 0xE9 0x21 0x5D 0xD1 STOP 0x2F 0xD3 0xCA 0x49 0xEB SGT 0xCE EXTCODECOPY 0x4E DUP7 0x5C 0xBF 0xD5 OR SWAP15 EXTCODECOPY 0x4F GT 0xBD 0xDB 0x4C PUSH5 0x736F6C6343 STOP ADDMOD SMOD STOP CALLER "
				},
				"gasEstimates": {
					"creation": {
						"codeDepositCost": "289200",
						"executionCost": "331",
						"totalCost": "289531"
					},
					"external": {
						"add(uint256,uint256)": "infinite",
						"additionHistory(uint256)": "infinite",
						"divide(uint256,uint256)": "infinite",
						"get()": "2459",
						"multiply(uint256,uint256)": "infinite",
						"sub(uint256,uint256)": "infinite"
					}
				},
				"methodIdentifiers": {
					"add(uint256,uint256)": "771602f7",
					"additionHistory(uint256)": "0e08e1b0",
					"divide(uint256,uint256)": "f88e9fbf",
					"get()": "6d4ce63c",
					"multiply(uint256,uint256)": "165c4a16",
					"sub(uint256,uint256)": "b67d77c5"
				}
			},
			"userdoc": {
				"kind": "user",
				"methods": {},
				"version": 1
			}
		}
	}
}