{
	"contracts/calculator.sol": {
		"Calculator": {
			"abi": [
				{
					"inputs": [
						{
							"internalType": "uint256",
							"name": "x",
							"type": "uint256"
						},
						{
							"internalType": "uint256",
							"name": "y",
							"type": "uint256"
						}
					],
					"name": "add",
					"outputs": [],
					"stateMutability": "nonpayable",
					"type": "function"
				},
				{
					"inputs": [
						{
							"internalType": "uint256",
							"name": "",
							"type": "uint256"
						}
					],
					"name": "additionHistory",
					"outputs": [
						{
							"internalType": "uint256",
							"name": "input1",
							"type": "uint256"
						},
						{
							"internalType": "uint256",
							"name": "input2",
							"type": "uint256"
						},
						{
							"internalType": "uint256",
							"name": "result1",
							"type": "uint256"
						}
					],
					"stateMutability": "view",
					"type": "function"
				},
				{
					"inputs": [
						{
							"internalType": "uint256",
							"name": "x",
							"type": "uint256"
						},
						{
							"internalType": "uint256",
							"name": "y",
							"type": "uint256"
						}
					],
					"name": "divide",
					"outputs": [],
					"stateMutability": "nonpayable",
					"type": "function"
				},
				{
					"inputs": [
						{
							"internalType": "uint256",
							"name": "",
							"type": "uint256"
						}
					],
					"name": "divisionHistory",
					"outputs": [
						{
							"internalType": "uint256",
							"name": "input1",
							"type": "uint256"
						},
						{
							"internalType": "uint256",
							"name": "input2",
							"type": "uint256"
						},
						{
							"internalType": "uint256",
							"name": "result1",
							"type": "uint256"
						}
					],
					"stateMutability": "view",
					"type": "function"
				},
				{
					"inputs": [],
					"name": "get",
					"outputs": [
						{
							"internalType": "uint256",
							"name": "",
							"type": "uint256"
						}
					],
					"stateMutability": "view",
					"type": "function"
				},
				{
					"inputs": [
						{
							"internalType": "uint256",
							"name": "",
							"type": "uint256"
						}
					],
					"name": "multiplicationHistory",
					"outputs": [
						{
							"internalType": "uint256",
							"name": "input1",
							"type": "uint256"
						},
						{
							"internalType": "uint256",
							"name": "input2",
							"type": "uint256"
						},
						{
							"internalType": "uint256",
							"name": "result1",
							"type": "uint256"
						}
					],
					"stateMutability": "view",
					"type": "function"
				},
				{
					"inputs": [
						{
							"internalType": "uint256",
							"name": "x",
							"type": "uint256"
						},
						{
							"internalType": "uint256",
							"name": "y",
							"type": "uint256"
						}
					],
					"name": "multiply",
					"outputs": [],
					"stateMutability": "nonpayable",
					"type": "function"
				},
				{
					"inputs": [
						{
							"internalType": "uint256",
							"name": "x",
							"type": "uint256"
						},
						{
							"internalType": "uint256",
							"name": "y",
							"type": "uint256"
						}
					],
					"name": "sub",
					"outputs": [],
					"stateMutability": "nonpayable",
					"type": "function"
				},
				{
					"inputs": [
						{
							"internalType": "uint256",
							"name": "",
							"type": "uint256"
						}
					],
					"name": "subtractionHistory",
					"outputs": [
						{
							"internalType": "uint256",
							"name": "input1",
							"type": "uint256"
						},
						{
							"internalType": "uint256",
							"name": "input2",
							"type": "uint256"
						},
						{
							"internalType": "uint256",
							"name": "result1",
							"type": "uint256"
						}
					],
					"stateMutability": "view",
					"type": "function"
				}
			],
			"devdoc": {
				"kind": "dev",
				"methods": {},
				"version": 1
			},
			"evm": {
				"assembly": "    /* \"contracts/calculator.sol\":66:1035  contract Calculator {\r... */\n  mstore(0x40, 0x80)\n  callvalue\n  dup1\n  iszero\n  tag_1\n  jumpi\n  0x00\n  dup1\n  revert\ntag_1:\n  pop\n  dataSize(sub_0)\n  dup1\n  dataOffset(sub_0)\n  0x00\n  codecopy\n  0x00\n  return\nstop\n\nsub_0: assembly {\n        /* \"contracts/calculator.sol\":66:1035  contract Calculator {\r... */\n      mstore(0x40, 0x80)\n      callvalue\n      dup1\n      iszero\n      tag_1\n      jumpi\n      0x00\n      dup1\n      revert\n    tag_1:\n      pop\n      jumpi(tag_2, lt(calldatasize, 0x04))\n      shr(0xe0, calldataload(0x00))\n      dup1\n      0x771602f7\n      gt\n      tag_12\n      jumpi\n      dup1\n      0x771602f7\n      eq\n      tag_7\n      jumpi\n      dup1\n      0x8040a979\n      eq\n      tag_8\n      jumpi\n      dup1\n      0x8b077d02\n      eq\n      tag_9\n      jumpi\n      dup1\n      0xb67d77c5\n      eq\n      tag_10\n      jumpi\n      dup1\n      0xf88e9fbf\n      eq\n      tag_11\n      jumpi\n      jump(tag_2)\n    tag_12:\n      dup1\n      0x0e08e1b0\n      eq\n      tag_3\n      jumpi\n      dup1\n      0x165c4a16\n      eq\n      tag_4\n      jumpi\n      dup1\n      0x63a96a52\n      eq\n      tag_5\n      jumpi\n      dup1\n      0x6d4ce63c\n      eq\n      tag_6\n      jumpi\n    tag_2:\n      0x00\n      dup1\n      revert\n        /* \"contracts/calculator.sol\":206:239  history [] public additionHistory */\n    tag_3:\n      tag_13\n      0x04\n      dup1\n      calldatasize\n      sub\n      dup2\n      add\n      swap1\n      tag_14\n      swap2\n      swap1\n      tag_15\n      jump\t// in\n    tag_14:\n      tag_16\n      jump\t// in\n    tag_13:\n      mload(0x40)\n      tag_17\n      swap4\n      swap3\n      swap2\n      swap1\n      tag_18\n      jump\t// in\n    tag_17:\n      mload(0x40)\n      dup1\n      swap2\n      sub\n      swap1\n      return\n        /* \"contracts/calculator.sol\":636:765  function multiply(uint x, uint y) public {\r... */\n    tag_4:\n      tag_19\n      0x04\n      dup1\n      calldatasize\n      sub\n      dup2\n      add\n      swap1\n      tag_20\n      swap2\n      swap1\n      tag_21\n      jump\t// in\n    tag_20:\n      tag_22\n      jump\t// in\n    tag_19:\n      stop\n        /* \"contracts/calculator.sol\":329:368  history [] public multiplicationHistory */\n    tag_5:\n      tag_23\n      0x04\n      dup1\n      calldatasize\n      sub\n      dup2\n      add\n      swap1\n      tag_24\n      swap2\n      swap1\n      tag_15\n      jump\t// in\n    tag_24:\n      tag_25\n      jump\t// in\n    tag_23:\n      mload(0x40)\n      tag_26\n      swap4\n      swap3\n      swap2\n      swap1\n      tag_18\n      jump\t// in\n    tag_26:\n      mload(0x40)\n      dup1\n      swap2\n      sub\n      swap1\n      return\n        /* \"contracts/calculator.sol\":958:1032  function get() public view returns (uint) {\r... */\n    tag_6:\n      tag_27\n      tag_28\n      jump\t// in\n    tag_27:\n      mload(0x40)\n      tag_29\n      swap2\n      swap1\n      tag_30\n      jump\t// in\n    tag_29:\n      mload(0x40)\n      dup1\n      swap2\n      sub\n      swap1\n      return\n        /* \"contracts/calculator.sol\":377:499  function add(uint x, uint y) public {\r... */\n    tag_7:\n      tag_31\n      0x04\n      dup1\n      calldatasize\n      sub\n      dup2\n      add\n      swap1\n      tag_32\n      swap2\n      swap1\n      tag_21\n      jump\t// in\n    tag_32:\n      tag_33\n      jump\t// in\n    tag_31:\n      stop\n        /* \"contracts/calculator.sol\":289:322  history [] public divisionHistory */\n    tag_8:\n      tag_34\n      0x04\n      dup1\n      calldatasize\n      sub\n      dup2\n      add\n      swap1\n      tag_35\n      swap2\n      swap1\n      tag_15\n      jump\t// in\n    tag_35:\n      tag_36\n      jump\t// in\n    tag_34:\n      mload(0x40)\n      tag_37\n      swap4\n      swap3\n      swap2\n      swap1\n      tag_18\n      jump\t// in\n    tag_37:\n      mload(0x40)\n      dup1\n      swap2\n      sub\n      swap1\n      return\n        /* \"contracts/calculator.sol\":246:282  history [] public subtractionHistory */\n    tag_9:\n      tag_38\n      0x04\n      dup1\n      calldatasize\n      sub\n      dup2\n      add\n      swap1\n      tag_39\n      swap2\n      swap1\n      tag_15\n      jump\t// in\n    tag_39:\n      tag_40\n      jump\t// in\n    tag_38:\n      mload(0x40)\n      tag_41\n      swap4\n      swap3\n      swap2\n      swap1\n      tag_18\n      jump\t// in\n    tag_41:\n      mload(0x40)\n      dup1\n      swap2\n      sub\n      swap1\n      return\n        /* \"contracts/calculator.sol\":507:628  function sub(uint x, uint y) public {\r... */\n    tag_10:\n      tag_42\n      0x04\n      dup1\n      calldatasize\n      sub\n      dup2\n      add\n      swap1\n      tag_43\n      swap2\n      swap1\n      tag_21\n      jump\t// in\n    tag_43:\n      tag_44\n      jump\t// in\n    tag_42:\n      stop\n        /* \"contracts/calculator.sol\":773:950  function divide(uint x, uint y) public {\r... */\n    tag_11:\n      tag_45\n      0x04\n      dup1\n      calldatasize\n      sub\n      dup2\n      add\n      swap1\n      tag_46\n      swap2\n      swap1\n      tag_21\n      jump\t// in\n    tag_46:\n      tag_47\n      jump\t// in\n    tag_45:\n      stop\n        /* \"contracts/calculator.sol\":206:239  history [] public additionHistory */\n    tag_16:\n      0x01\n      dup2\n      dup2\n      sload\n      dup2\n      lt\n      tag_48\n      jumpi\n      0x00\n      dup1\n      revert\n    tag_48:\n      swap1\n      0x00\n      mstore\n      keccak256(0x00, 0x20)\n      swap1\n      0x03\n      mul\n      add\n      0x00\n      swap2\n      pop\n      swap1\n      pop\n      dup1\n      0x00\n      add\n      sload\n      swap1\n      dup1\n      0x01\n      add\n      sload\n      swap1\n      dup1\n      0x02\n      add\n      sload\n      swap1\n      pop\n      dup4\n      jump\t// out\n        /* \"contracts/calculator.sol\":636:765  function multiply(uint x, uint y) public {\r... */\n    tag_22:\n        /* \"contracts/calculator.sol\":701:702  y */\n      dup1\n        /* \"contracts/calculator.sol\":697:698  x */\n      dup3\n        /* \"contracts/calculator.sol\":697:702  x * y */\n      tag_51\n      swap2\n      swap1\n      tag_52\n      jump\t// in\n    tag_51:\n        /* \"contracts/calculator.sol\":688:694  result */\n      0x00\n        /* \"contracts/calculator.sol\":688:702  result = x * y */\n      dup2\n      swap1\n      sstore\n      pop\n        /* \"contracts/calculator.sol\":713:734  multiplicationHistory */\n      0x04\n        /* \"contracts/calculator.sol\":740:756  history(x,y,x+y) */\n      mload(0x40)\n      dup1\n      0x60\n      add\n      0x40\n      mstore\n      dup1\n        /* \"contracts/calculator.sol\":748:749  x */\n      dup5\n        /* \"contracts/calculator.sol\":740:756  history(x,y,x+y) */\n      dup2\n      mstore\n      0x20\n      add\n        /* \"contracts/calculator.sol\":750:751  y */\n      dup4\n        /* \"contracts/calculator.sol\":740:756  history(x,y,x+y) */\n      dup2\n      mstore\n      0x20\n      add\n        /* \"contracts/calculator.sol\":754:755  y */\n      dup4\n        /* \"contracts/calculator.sol\":752:753  x */\n      dup6\n        /* \"contracts/calculator.sol\":752:755  x+y */\n      tag_53\n      swap2\n      swap1\n      tag_54\n      jump\t// in\n    tag_53:\n        /* \"contracts/calculator.sol\":740:756  history(x,y,x+y) */\n      dup2\n      mstore\n      pop\n        /* \"contracts/calculator.sol\":713:757  multiplicationHistory.push(history(x,y,x+y)) */\n      swap1\n      dup1\n      0x01\n      dup2\n      sload\n      add\n      dup1\n      dup3\n      sstore\n      dup1\n      swap2\n      pop\n      pop\n      0x01\n      swap1\n      sub\n      swap1\n      0x00\n      mstore\n      keccak256(0x00, 0x20)\n      swap1\n      0x03\n      mul\n      add\n      0x00\n      swap1\n      swap2\n      swap1\n      swap2\n      swap1\n      swap2\n      pop\n      0x00\n      dup3\n      add\n      mload\n      dup2\n      0x00\n      add\n      sstore\n      0x20\n      dup3\n      add\n      mload\n      dup2\n      0x01\n      add\n      sstore\n      0x40\n      dup3\n      add\n      mload\n      dup2\n      0x02\n      add\n      sstore\n      pop\n      pop\n        /* \"contracts/calculator.sol\":636:765  function multiply(uint x, uint y) public {\r... */\n      pop\n      pop\n      jump\t// out\n        /* \"contracts/calculator.sol\":329:368  history [] public multiplicationHistory */\n    tag_25:\n      0x04\n      dup2\n      dup2\n      sload\n      dup2\n      lt\n      tag_56\n      jumpi\n      0x00\n      dup1\n      revert\n    tag_56:\n      swap1\n      0x00\n      mstore\n      keccak256(0x00, 0x20)\n      swap1\n      0x03\n      mul\n      add\n      0x00\n      swap2\n      pop\n      swap1\n      pop\n      dup1\n      0x00\n      add\n      sload\n      swap1\n      dup1\n      0x01\n      add\n      sload\n      swap1\n      dup1\n      0x02\n      add\n      sload\n      swap1\n      pop\n      dup4\n      jump\t// out\n        /* \"contracts/calculator.sol\":958:1032  function get() public view returns (uint) {\r... */\n    tag_28:\n        /* \"contracts/calculator.sol\":994:998  uint */\n      0x00\n        /* \"contracts/calculator.sol\":1018:1024  result */\n      dup1\n      sload\n        /* \"contracts/calculator.sol\":1011:1024  return result */\n      swap1\n      pop\n        /* \"contracts/calculator.sol\":958:1032  function get() public view returns (uint) {\r... */\n      swap1\n      jump\t// out\n        /* \"contracts/calculator.sol\":377:499  function add(uint x, uint y) public {\r... */\n    tag_33:\n        /* \"contracts/calculator.sol\":437:438  y */\n      dup1\n        /* \"contracts/calculator.sol\":433:434  x */\n      dup3\n        /* \"contracts/calculator.sol\":433:438  x + y */\n      tag_60\n      swap2\n      swap1\n      tag_54\n      jump\t// in\n    tag_60:\n        /* \"contracts/calculator.sol\":424:430  result */\n      0x00\n        /* \"contracts/calculator.sol\":424:438  result = x + y */\n      dup2\n      swap1\n      sstore\n      pop\n        /* \"contracts/calculator.sol\":449:464  additionHistory */\n      0x01\n        /* \"contracts/calculator.sol\":470:486  history(x,y,x+y) */\n      mload(0x40)\n      dup1\n      0x60\n      add\n      0x40\n      mstore\n      dup1\n        /* \"contracts/calculator.sol\":478:479  x */\n      dup5\n        /* \"contracts/calculator.sol\":470:486  history(x,y,x+y) */\n      dup2\n      mstore\n      0x20\n      add\n        /* \"contracts/calculator.sol\":480:481  y */\n      dup4\n        /* \"contracts/calculator.sol\":470:486  history(x,y,x+y) */\n      dup2\n      mstore\n      0x20\n      add\n        /* \"contracts/calculator.sol\":484:485  y */\n      dup4\n        /* \"contracts/calculator.sol\":482:483  x */\n      dup6\n        /* \"contracts/calculator.sol\":482:485  x+y */\n      tag_61\n      swap2\n      swap1\n      tag_54\n      jump\t// in\n    tag_61:\n        /* \"contracts/calculator.sol\":470:486  history(x,y,x+y) */\n      dup2\n      mstore\n      pop\n        /* \"contracts/calculator.sol\":449:487  additionHistory.push(history(x,y,x+y)) */\n      swap1\n      dup1\n      0x01\n      dup2\n      sload\n      add\n      dup1\n      dup3\n      sstore\n      dup1\n      swap2\n      pop\n      pop\n      0x01\n      swap1\n      sub\n      swap1\n      0x00\n      mstore\n      keccak256(0x00, 0x20)\n      swap1\n      0x03\n      mul\n      add\n      0x00\n      swap1\n      swap2\n      swap1\n      swap2\n      swap1\n      swap2\n      pop\n      0x00\n      dup3\n      add\n      mload\n      dup2\n      0x00\n      add\n      sstore\n      0x20\n      dup3\n      add\n      mload\n      dup2\n      0x01\n      add\n      sstore\n      0x40\n      dup3\n      add\n      mload\n      dup2\n      0x02\n      add\n      sstore\n      pop\n      pop\n        /* \"contracts/calculator.sol\":377:499  function add(uint x, uint y) public {\r... */\n      pop\n      pop\n      jump\t// out\n        /* \"contracts/calculator.sol\":289:322  history [] public divisionHistory */\n    tag_36:\n      0x03\n      dup2\n      dup2\n      sload\n      dup2\n      lt\n      tag_63\n      jumpi\n      0x00\n      dup1\n      revert\n    tag_63:\n      swap1\n      0x00\n      mstore\n      keccak256(0x00, 0x20)\n      swap1\n      0x03\n      mul\n      add\n      0x00\n      swap2\n      pop\n      swap1\n      pop\n      dup1\n      0x00\n      add\n      sload\n      swap1\n      dup1\n      0x01\n      add\n      sload\n      swap1\n      dup1\n      0x02\n      add\n      sload\n      swap1\n      pop\n      dup4\n      jump\t// out\n        /* \"contracts/calculator.sol\":246:282  history [] public subtractionHistory */\n    tag_40:\n      0x02\n      dup2\n      dup2\n      sload\n      dup2\n      lt\n      tag_65\n      jumpi\n      0x00\n      dup1\n      revert\n    tag_65:\n      swap1\n      0x00\n      mstore\n      keccak256(0x00, 0x20)\n      swap1\n      0x03\n      mul\n      add\n      0x00\n      swap2\n      pop\n      swap1\n      pop\n      dup1\n      0x00\n      add\n      sload\n      swap1\n      dup1\n      0x01\n      add\n      sload\n      swap1\n      dup1\n      0x02\n      add\n      sload\n      swap1\n      pop\n      dup4\n      jump\t// out\n        /* \"contracts/calculator.sol\":507:628  function sub(uint x, uint y) public {\r... */\n    tag_44:\n        /* \"contracts/calculator.sol\":567:568  y */\n      dup1\n        /* \"contracts/calculator.sol\":563:564  x */\n      dup3\n        /* \"contracts/calculator.sol\":563:568  x - y */\n      tag_68\n      swap2\n      swap1\n      tag_69\n      jump\t// in\n    tag_68:\n        /* \"contracts/calculator.sol\":554:560  result */\n      0x00\n        /* \"contracts/calculator.sol\":554:568  result = x - y */\n      dup2\n      swap1\n      sstore\n      pop\n        /* \"contracts/calculator.sol\":579:597  subtractionHistory */\n      0x02\n        /* \"contracts/calculator.sol\":603:619  history(x,y,x+y) */\n      mload(0x40)\n      dup1\n      0x60\n      add\n      0x40\n      mstore\n      dup1\n        /* \"contracts/calculator.sol\":611:612  x */\n      dup5\n        /* \"contracts/calculator.sol\":603:619  history(x,y,x+y) */\n      dup2\n      mstore\n      0x20\n      add\n        /* \"contracts/calculator.sol\":613:614  y */\n      dup4\n        /* \"contracts/calculator.sol\":603:619  history(x,y,x+y) */\n      dup2\n      mstore\n      0x20\n      add\n        /* \"contracts/calculator.sol\":617:618  y */\n      dup4\n        /* \"contracts/calculator.sol\":615:616  x */\n      dup6\n        /* \"contracts/calculator.sol\":615:618  x+y */\n      tag_70\n      swap2\n      swap1\n      tag_54\n      jump\t// in\n    tag_70:\n        /* \"contracts/calculator.sol\":603:619  history(x,y,x+y) */\n      dup2\n      mstore\n      pop\n        /* \"contracts/calculator.sol\":579:620  subtractionHistory.push(history(x,y,x+y)) */\n      swap1\n      dup1\n      0x01\n      dup2\n      sload\n      add\n      dup1\n      dup3\n      sstore\n      dup1\n      swap2\n      pop\n      pop\n      0x01\n      swap1\n      sub\n      swap1\n      0x00\n      mstore\n      keccak256(0x00, 0x20)\n      swap1\n      0x03\n      mul\n      add\n      0x00\n      swap1\n      swap2\n      swap1\n      swap2\n      swap1\n      swap2\n      pop\n      0x00\n      dup3\n      add\n      mload\n      dup2\n      0x00\n      add\n      sstore\n      0x20\n      dup3\n      add\n      mload\n      dup2\n      0x01\n      add\n      sstore\n      0x40\n      dup3\n      add\n      mload\n      dup2\n      0x02\n      add\n      sstore\n      pop\n      pop\n        /* \"contracts/calculator.sol\":507:628  function sub(uint x, uint y) public {\r... */\n      pop\n      pop\n      jump\t// out\n        /* \"contracts/calculator.sol\":773:950  function divide(uint x, uint y) public {\r... */\n    tag_47:\n        /* \"contracts/calculator.sol\":834:835  0 */\n      0x00\n        /* \"contracts/calculator.sol\":831:832  y */\n      dup2\n        /* \"contracts/calculator.sol\":831:835  y!=0 */\n      eq\n      iszero\n        /* \"contracts/calculator.sol\":823:868  require(y!=0,'Division by zero not possible') */\n      tag_73\n      jumpi\n      mload(0x40)\n      0x08c379a000000000000000000000000000000000000000000000000000000000\n      dup2\n      mstore\n      0x04\n      add\n      tag_74\n      swap1\n      tag_75\n      jump\t// in\n    tag_74:\n      mload(0x40)\n      dup1\n      swap2\n      sub\n      swap1\n      revert\n    tag_73:\n        /* \"contracts/calculator.sol\":892:893  y */\n      dup1\n        /* \"contracts/calculator.sol\":888:889  x */\n      dup3\n        /* \"contracts/calculator.sol\":888:893  x / y */\n      tag_76\n      swap2\n      swap1\n      tag_77\n      jump\t// in\n    tag_76:\n        /* \"contracts/calculator.sol\":879:885  result */\n      0x00\n        /* \"contracts/calculator.sol\":879:893  result = x / y */\n      dup2\n      swap1\n      sstore\n      pop\n        /* \"contracts/calculator.sol\":904:919  divisionHistory */\n      0x03\n        /* \"contracts/calculator.sol\":925:941  history(x,y,x+y) */\n      mload(0x40)\n      dup1\n      0x60\n      add\n      0x40\n      mstore\n      dup1\n        /* \"contracts/calculator.sol\":933:934  x */\n      dup5\n        /* \"contracts/calculator.sol\":925:941  history(x,y,x+y) */\n      dup2\n      mstore\n      0x20\n      add\n        /* \"contracts/calculator.sol\":935:936  y */\n      dup4\n        /* \"contracts/calculator.sol\":925:941  history(x,y,x+y) */\n      dup2\n      mstore\n      0x20\n      add\n        /* \"contracts/calculator.sol\":939:940  y */\n      dup4\n        /* \"contracts/calculator.sol\":937:938  x */\n      dup6\n        /* \"contracts/calculator.sol\":937:940  x+y */\n      tag_78\n      swap2\n      swap1\n      tag_54\n      jump\t// in\n    tag_78:\n        /* \"contracts/calculator.sol\":925:941  history(x,y,x+y) */\n      dup2\n      mstore\n      pop\n        /* \"contracts/calculator.sol\":904:942  divisionHistory.push(history(x,y,x+y)) */\n      swap1\n      dup1\n      0x01\n      dup2\n      sload\n      add\n      dup1\n      dup3\n      sstore\n      dup1\n      swap2\n      pop\n      pop\n      0x01\n      swap1\n      sub\n      swap1\n      0x00\n      mstore\n      keccak256(0x00, 0x20)\n      swap1\n      0x03\n      mul\n      add\n      0x00\n      swap1\n      swap2\n      swap1\n      swap2\n      swap1\n      swap2\n      pop\n      0x00\n      dup3\n      add\n      mload\n      dup2\n      0x00\n      add\n      sstore\n      0x20\n      dup3\n      add\n      mload\n      dup2\n      0x01\n      add\n      sstore\n      0x40\n      dup3\n      add\n      mload\n      dup2\n      0x02\n      add\n      sstore\n      pop\n      pop\n        /* \"contracts/calculator.sol\":773:950  function divide(uint x, uint y) public {\r... */\n      pop\n      pop\n      jump\t// out\n        /* \"#utility.yul\":7:146   */\n    tag_81:\n        /* \"#utility.yul\":53:58   */\n      0x00\n        /* \"#utility.yul\":91:97   */\n      dup2\n        /* \"#utility.yul\":78:98   */\n      calldataload\n        /* \"#utility.yul\":69:98   */\n      swap1\n      pop\n        /* \"#utility.yul\":107:140   */\n      tag_83\n        /* \"#utility.yul\":134:139   */\n      dup2\n        /* \"#utility.yul\":107:140   */\n      tag_84\n      jump\t// in\n    tag_83:\n        /* \"#utility.yul\":7:146   */\n      swap3\n      swap2\n      pop\n      pop\n      jump\t// out\n        /* \"#utility.yul\":152:481   */\n    tag_15:\n        /* \"#utility.yul\":211:217   */\n      0x00\n        /* \"#utility.yul\":260:262   */\n      0x20\n        /* \"#utility.yul\":248:257   */\n      dup3\n        /* \"#utility.yul\":239:246   */\n      dup5\n        /* \"#utility.yul\":235:258   */\n      sub\n        /* \"#utility.yul\":231:263   */\n      slt\n        /* \"#utility.yul\":228:347   */\n      iszero\n      tag_86\n      jumpi\n        /* \"#utility.yul\":266:345   */\n      tag_87\n      tag_88\n      jump\t// in\n    tag_87:\n        /* \"#utility.yul\":228:347   */\n    tag_86:\n        /* \"#utility.yul\":386:387   */\n      0x00\n        /* \"#utility.yul\":411:464   */\n      tag_89\n        /* \"#utility.yul\":456:463   */\n      dup5\n        /* \"#utility.yul\":447:453   */\n      dup3\n        /* \"#utility.yul\":436:445   */\n      dup6\n        /* \"#utility.yul\":432:454   */\n      add\n        /* \"#utility.yul\":411:464   */\n      tag_81\n      jump\t// in\n    tag_89:\n        /* \"#utility.yul\":401:464   */\n      swap2\n      pop\n        /* \"#utility.yul\":357:474   */\n      pop\n        /* \"#utility.yul\":152:481   */\n      swap3\n      swap2\n      pop\n      pop\n      jump\t// out\n        /* \"#utility.yul\":487:961   */\n    tag_21:\n        /* \"#utility.yul\":555:561   */\n      0x00\n        /* \"#utility.yul\":563:569   */\n      dup1\n        /* \"#utility.yul\":612:614   */\n      0x40\n        /* \"#utility.yul\":600:609   */\n      dup4\n        /* \"#utility.yul\":591:598   */\n      dup6\n        /* \"#utility.yul\":587:610   */\n      sub\n        /* \"#utility.yul\":583:615   */\n      slt\n        /* \"#utility.yul\":580:699   */\n      iszero\n      tag_91\n      jumpi\n        /* \"#utility.yul\":618:697   */\n      tag_92\n      tag_88\n      jump\t// in\n    tag_92:\n        /* \"#utility.yul\":580:699   */\n    tag_91:\n        /* \"#utility.yul\":738:739   */\n      0x00\n        /* \"#utility.yul\":763:816   */\n      tag_93\n        /* \"#utility.yul\":808:815   */\n      dup6\n        /* \"#utility.yul\":799:805   */\n      dup3\n        /* \"#utility.yul\":788:797   */\n      dup7\n        /* \"#utility.yul\":784:806   */\n      add\n        /* \"#utility.yul\":763:816   */\n      tag_81\n      jump\t// in\n    tag_93:\n        /* \"#utility.yul\":753:816   */\n      swap3\n      pop\n        /* \"#utility.yul\":709:826   */\n      pop\n        /* \"#utility.yul\":865:867   */\n      0x20\n        /* \"#utility.yul\":891:944   */\n      tag_94\n        /* \"#utility.yul\":936:943   */\n      dup6\n        /* \"#utility.yul\":927:933   */\n      dup3\n        /* \"#utility.yul\":916:925   */\n      dup7\n        /* \"#utility.yul\":912:934   */\n      add\n        /* \"#utility.yul\":891:944   */\n      tag_81\n      jump\t// in\n    tag_94:\n        /* \"#utility.yul\":881:944   */\n      swap2\n      pop\n        /* \"#utility.yul\":836:954   */\n      pop\n        /* \"#utility.yul\":487:961   */\n      swap3\n      pop\n      swap3\n      swap1\n      pop\n      jump\t// out\n        /* \"#utility.yul\":967:1333   */\n    tag_95:\n        /* \"#utility.yul\":1109:1112   */\n      0x00\n        /* \"#utility.yul\":1130:1197   */\n      tag_97\n        /* \"#utility.yul\":1194:1196   */\n      0x1d\n        /* \"#utility.yul\":1189:1192   */\n      dup4\n        /* \"#utility.yul\":1130:1197   */\n      tag_98\n      jump\t// in\n    tag_97:\n        /* \"#utility.yul\":1123:1197   */\n      swap2\n      pop\n        /* \"#utility.yul\":1206:1299   */\n      tag_99\n        /* \"#utility.yul\":1295:1298   */\n      dup3\n        /* \"#utility.yul\":1206:1299   */\n      tag_100\n      jump\t// in\n    tag_99:\n        /* \"#utility.yul\":1324:1326   */\n      0x20\n        /* \"#utility.yul\":1319:1322   */\n      dup3\n        /* \"#utility.yul\":1315:1327   */\n      add\n        /* \"#utility.yul\":1308:1327   */\n      swap1\n      pop\n        /* \"#utility.yul\":967:1333   */\n      swap2\n      swap1\n      pop\n      jump\t// out\n        /* \"#utility.yul\":1339:1457   */\n    tag_101:\n        /* \"#utility.yul\":1426:1450   */\n      tag_103\n        /* \"#utility.yul\":1444:1449   */\n      dup2\n        /* \"#utility.yul\":1426:1450   */\n      tag_104\n      jump\t// in\n    tag_103:\n        /* \"#utility.yul\":1421:1424   */\n      dup3\n        /* \"#utility.yul\":1414:1451   */\n      mstore\n        /* \"#utility.yul\":1339:1457   */\n      pop\n      pop\n      jump\t// out\n        /* \"#utility.yul\":1463:1882   */\n    tag_75:\n        /* \"#utility.yul\":1629:1633   */\n      0x00\n        /* \"#utility.yul\":1667:1669   */\n      0x20\n        /* \"#utility.yul\":1656:1665   */\n      dup3\n        /* \"#utility.yul\":1652:1670   */\n      add\n        /* \"#utility.yul\":1644:1670   */\n      swap1\n      pop\n        /* \"#utility.yul\":1716:1725   */\n      dup2\n        /* \"#utility.yul\":1710:1714   */\n      dup2\n        /* \"#utility.yul\":1706:1726   */\n      sub\n        /* \"#utility.yul\":1702:1703   */\n      0x00\n        /* \"#utility.yul\":1691:1700   */\n      dup4\n        /* \"#utility.yul\":1687:1704   */\n      add\n        /* \"#utility.yul\":1680:1727   */\n      mstore\n        /* \"#utility.yul\":1744:1875   */\n      tag_106\n        /* \"#utility.yul\":1870:1874   */\n      dup2\n        /* \"#utility.yul\":1744:1875   */\n      tag_95\n      jump\t// in\n    tag_106:\n        /* \"#utility.yul\":1736:1875   */\n      swap1\n      pop\n        /* \"#utility.yul\":1463:1882   */\n      swap2\n      swap1\n      pop\n      jump\t// out\n        /* \"#utility.yul\":1888:2110   */\n    tag_30:\n        /* \"#utility.yul\":1981:1985   */\n      0x00\n        /* \"#utility.yul\":2019:2021   */\n      0x20\n        /* \"#utility.yul\":2008:2017   */\n      dup3\n        /* \"#utility.yul\":2004:2022   */\n      add\n        /* \"#utility.yul\":1996:2022   */\n      swap1\n      pop\n        /* \"#utility.yul\":2032:2103   */\n      tag_108\n        /* \"#utility.yul\":2100:2101   */\n      0x00\n        /* \"#utility.yul\":2089:2098   */\n      dup4\n        /* \"#utility.yul\":2085:2102   */\n      add\n        /* \"#utility.yul\":2076:2082   */\n      dup5\n        /* \"#utility.yul\":2032:2103   */\n      tag_101\n      jump\t// in\n    tag_108:\n        /* \"#utility.yul\":1888:2110   */\n      swap3\n      swap2\n      pop\n      pop\n      jump\t// out\n        /* \"#utility.yul\":2116:2558   */\n    tag_18:\n        /* \"#utility.yul\":2265:2269   */\n      0x00\n        /* \"#utility.yul\":2303:2305   */\n      0x60\n        /* \"#utility.yul\":2292:2301   */\n      dup3\n        /* \"#utility.yul\":2288:2306   */\n      add\n        /* \"#utility.yul\":2280:2306   */\n      swap1\n      pop\n        /* \"#utility.yul\":2316:2387   */\n      tag_110\n        /* \"#utility.yul\":2384:2385   */\n      0x00\n        /* \"#utility.yul\":2373:2382   */\n      dup4\n        /* \"#utility.yul\":2369:2386   */\n      add\n        /* \"#utility.yul\":2360:2366   */\n      dup7\n        /* \"#utility.yul\":2316:2387   */\n      tag_101\n      jump\t// in\n    tag_110:\n        /* \"#utility.yul\":2397:2469   */\n      tag_111\n        /* \"#utility.yul\":2465:2467   */\n      0x20\n        /* \"#utility.yul\":2454:2463   */\n      dup4\n        /* \"#utility.yul\":2450:2468   */\n      add\n        /* \"#utility.yul\":2441:2447   */\n      dup6\n        /* \"#utility.yul\":2397:2469   */\n      tag_101\n      jump\t// in\n    tag_111:\n        /* \"#utility.yul\":2479:2551   */\n      tag_112\n        /* \"#utility.yul\":2547:2549   */\n      0x40\n        /* \"#utility.yul\":2536:2545   */\n      dup4\n        /* \"#utility.yul\":2532:2550   */\n      add\n        /* \"#utility.yul\":2523:2529   */\n      dup5\n        /* \"#utility.yul\":2479:2551   */\n      tag_101\n      jump\t// in\n    tag_112:\n        /* \"#utility.yul\":2116:2558   */\n      swap5\n      swap4\n      pop\n      pop\n      pop\n      pop\n      jump\t// out\n        /* \"#utility.yul\":2645:2814   */\n    tag_98:\n        /* \"#utility.yul\":2729:2740   */\n      0x00\n        /* \"#utility.yul\":2763:2769   */\n      dup3\n        /* \"#utility.yul\":2758:2761   */\n      dup3\n        /* \"#utility.yul\":2751:2770   */\n      mstore\n        /* \"#utility.yul\":2803:2807   */\n      0x20\n        /* \"#utility.yul\":2798:2801   */\n      dup3\n        /* \"#utility.yul\":2794:2808   */\n      add\n        /* \"#utility.yul\":2779:2808   */\n      swap1\n      pop\n        /* \"#utility.yul\":2645:2814   */\n      swap3\n      swap2\n      pop\n      pop\n      jump\t// out\n        /* \"#utility.yul\":2820:3125   */\n    tag_54:\n        /* \"#utility.yul\":2860:2863   */\n      0x00\n        /* \"#utility.yul\":2879:2899   */\n      tag_117\n        /* \"#utility.yul\":2897:2898   */\n      dup3\n        /* \"#utility.yul\":2879:2899   */\n      tag_104\n      jump\t// in\n    tag_117:\n        /* \"#utility.yul\":2874:2899   */\n      swap2\n      pop\n        /* \"#utility.yul\":2913:2933   */\n      tag_118\n        /* \"#utility.yul\":2931:2932   */\n      dup4\n        /* \"#utility.yul\":2913:2933   */\n      tag_104\n      jump\t// in\n    tag_118:\n        /* \"#utility.yul\":2908:2933   */\n      swap3\n      pop\n        /* \"#utility.yul\":3067:3068   */\n      dup3\n        /* \"#utility.yul\":2999:3065   */\n      0xffffffffffffffffffffffffffffffffffffffffffffffffffffffffffffffff\n        /* \"#utility.yul\":2995:3069   */\n      sub\n        /* \"#utility.yul\":2992:2993   */\n      dup3\n        /* \"#utility.yul\":2989:3070   */\n      gt\n        /* \"#utility.yul\":2986:3093   */\n      iszero\n      tag_119\n      jumpi\n        /* \"#utility.yul\":3073:3091   */\n      tag_120\n      tag_121\n      jump\t// in\n    tag_120:\n        /* \"#utility.yul\":2986:3093   */\n    tag_119:\n        /* \"#utility.yul\":3117:3118   */\n      dup3\n        /* \"#utility.yul\":3114:3115   */\n      dup3\n        /* \"#utility.yul\":3110:3119   */\n      add\n        /* \"#utility.yul\":3103:3119   */\n      swap1\n      pop\n        /* \"#utility.yul\":2820:3125   */\n      swap3\n      swap2\n      pop\n      pop\n      jump\t// out\n        /* \"#utility.yul\":3131:3316   */\n    tag_77:\n        /* \"#utility.yul\":3171:3172   */\n      0x00\n        /* \"#utility.yul\":3188:3208   */\n      tag_123\n        /* \"#utility.yul\":3206:3207   */\n      dup3\n        /* \"#utility.yul\":3188:3208   */\n      tag_104\n      jump\t// in\n    tag_123:\n        /* \"#utility.yul\":3183:3208   */\n      swap2\n      pop\n        /* \"#utility.yul\":3222:3242   */\n      tag_124\n        /* \"#utility.yul\":3240:3241   */\n      dup4\n        /* \"#utility.yul\":3222:3242   */\n      tag_104\n      jump\t// in\n    tag_124:\n        /* \"#utility.yul\":3217:3242   */\n      swap3\n      pop\n        /* \"#utility.yul\":3261:3262   */\n      dup3\n        /* \"#utility.yul\":3251:3286   */\n      tag_125\n      jumpi\n        /* \"#utility.yul\":3266:3284   */\n      tag_126\n      tag_127\n      jump\t// in\n    tag_126:\n        /* \"#utility.yul\":3251:3286   */\n    tag_125:\n        /* \"#utility.yul\":3308:3309   */\n      dup3\n        /* \"#utility.yul\":3305:3306   */\n      dup3\n        /* \"#utility.yul\":3301:3310   */\n      div\n        /* \"#utility.yul\":3296:3310   */\n      swap1\n      pop\n        /* \"#utility.yul\":3131:3316   */\n      swap3\n      swap2\n      pop\n      pop\n      jump\t// out\n        /* \"#utility.yul\":3322:3670   */\n    tag_52:\n        /* \"#utility.yul\":3362:3369   */\n      0x00\n        /* \"#utility.yul\":3385:3405   */\n      tag_129\n        /* \"#utility.yul\":3403:3404   */\n      dup3\n        /* \"#utility.yul\":3385:3405   */\n      tag_104\n      jump\t// in\n    tag_129:\n        /* \"#utility.yul\":3380:3405   */\n      swap2\n      pop\n        /* \"#utility.yul\":3419:3439   */\n      tag_130\n        /* \"#utility.yul\":3437:3438   */\n      dup4\n        /* \"#utility.yul\":3419:3439   */\n      tag_104\n      jump\t// in\n    tag_130:\n        /* \"#utility.yul\":3414:3439   */\n      swap3\n      pop\n        /* \"#utility.yul\":3607:3608   */\n      dup2\n        /* \"#utility.yul\":3539:3605   */\n      0xffffffffffffffffffffffffffffffffffffffffffffffffffffffffffffffff\n        /* \"#utility.yul\":3535:3609   */\n      div\n        /* \"#utility.yul\":3532:3533   */\n      dup4\n        /* \"#utility.yul\":3529:3610   */\n      gt\n        /* \"#utility.yul\":3524:3525   */\n      dup3\n        /* \"#utility.yul\":3517:3526   */\n      iszero\n        /* \"#utility.yul\":3510:3527   */\n      iszero\n        /* \"#utility.yul\":3506:3611   */\n      and\n        /* \"#utility.yul\":3503:3634   */\n      iszero\n      tag_131\n      jumpi\n        /* \"#utility.yul\":3614:3632   */\n      tag_132\n      tag_121\n      jump\t// in\n    tag_132:\n        /* \"#utility.yul\":3503:3634   */\n    tag_131:\n        /* \"#utility.yul\":3662:3663   */\n      dup3\n        /* \"#utility.yul\":3659:3660   */\n      dup3\n        /* \"#utility.yul\":3655:3664   */\n      mul\n        /* \"#utility.yul\":3644:3664   */\n      swap1\n      pop\n        /* \"#utility.yul\":3322:3670   */\n      swap3\n      swap2\n      pop\n      pop\n      jump\t// out\n        /* \"#utility.yul\":3676:3867   */\n    tag_69:\n        /* \"#utility.yul\":3716:3720   */\n      0x00\n        /* \"#utility.yul\":3736:3756   */\n      tag_134\n        /* \"#utility.yul\":3754:3755   */\n      dup3\n        /* \"#utility.yul\":3736:3756   */\n      tag_104\n      jump\t// in\n    tag_134:\n        /* \"#utility.yul\":3731:3756   */\n      swap2\n      pop\n        /* \"#utility.yul\":3770:3790   */\n      tag_135\n        /* \"#utility.yul\":3788:3789   */\n      dup4\n        /* \"#utility.yul\":3770:3790   */\n      tag_104\n      jump\t// in\n    tag_135:\n        /* \"#utility.yul\":3765:3790   */\n      swap3\n      pop\n        /* \"#utility.yul\":3809:3810   */\n      dup3\n        /* \"#utility.yul\":3806:3807   */\n      dup3\n        /* \"#utility.yul\":3803:3811   */\n      lt\n        /* \"#utility.yul\":3800:3834   */\n      iszero\n      tag_136\n      jumpi\n        /* \"#utility.yul\":3814:3832   */\n      tag_137\n      tag_121\n      jump\t// in\n    tag_137:\n        /* \"#utility.yul\":3800:3834   */\n    tag_136:\n        /* \"#utility.yul\":3859:3860   */\n      dup3\n        /* \"#utility.yul\":3856:3857   */\n      dup3\n        /* \"#utility.yul\":3852:3861   */\n      sub\n        /* \"#utility.yul\":3844:3861   */\n      swap1\n      pop\n        /* \"#utility.yul\":3676:3867   */\n      swap3\n      swap2\n      pop\n      pop\n      jump\t// out\n        /* \"#utility.yul\":3873:3950   */\n    tag_104:\n        /* \"#utility.yul\":3910:3917   */\n      0x00\n        /* \"#utility.yul\":3939:3944   */\n      dup2\n        /* \"#utility.yul\":3928:3944   */\n      swap1\n      pop\n        /* \"#utility.yul\":3873:3950   */\n      swap2\n      swap1\n      pop\n      jump\t// out\n        /* \"#utility.yul\":3956:4136   */\n    tag_121:\n        /* \"#utility.yul\":4004:4081   */\n      0x4e487b7100000000000000000000000000000000000000000000000000000000\n        /* \"#utility.yul\":4001:4002   */\n      0x00\n        /* \"#utility.yul\":3994:4082   */\n      mstore\n        /* \"#utility.yul\":4101:4105   */\n      0x11\n        /* \"#utility.yul\":4098:4099   */\n      0x04\n        /* \"#utility.yul\":4091:4106   */\n      mstore\n        /* \"#utility.yul\":4125:4129   */\n      0x24\n        /* \"#utility.yul\":4122:4123   */\n      0x00\n        /* \"#utility.yul\":4115:4130   */\n      revert\n        /* \"#utility.yul\":4142:4322   */\n    tag_127:\n        /* \"#utility.yul\":4190:4267   */\n      0x4e487b7100000000000000000000000000000000000000000000000000000000\n        /* \"#utility.yul\":4187:4188   */\n      0x00\n        /* \"#utility.yul\":4180:4268   */\n      mstore\n        /* \"#utility.yul\":4287:4291   */\n      0x12\n        /* \"#utility.yul\":4284:4285   */\n      0x04\n        /* \"#utility.yul\":4277:4292   */\n      mstore\n        /* \"#utility.yul\":4311:4315   */\n      0x24\n        /* \"#utility.yul\":4308:4309   */\n      0x00\n        /* \"#utility.yul\":4301:4316   */\n      revert\n        /* \"#utility.yul\":4451:4568   */\n    tag_88:\n        /* \"#utility.yul\":4560:4561   */\n      0x00\n        /* \"#utility.yul\":4557:4558   */\n      dup1\n        /* \"#utility.yul\":4550:4562   */\n      revert\n        /* \"#utility.yul\":4574:4753   */\n    tag_100:\n        /* \"#utility.yul\":4714:4745   */\n      0x4469766973696f6e206279207a65726f206e6f7420706f737369626c65000000\n        /* \"#utility.yul\":4710:4711   */\n      0x00\n        /* \"#utility.yul\":4702:4708   */\n      dup3\n        /* \"#utility.yul\":4698:4712   */\n      add\n        /* \"#utility.yul\":4691:4746   */\n      mstore\n        /* \"#utility.yul\":4574:4753   */\n      pop\n      jump\t// out\n        /* \"#utility.yul\":4759:4881   */\n    tag_84:\n        /* \"#utility.yul\":4832:4856   */\n      tag_146\n        /* \"#utility.yul\":4850:4855   */\n      dup2\n        /* \"#utility.yul\":4832:4856   */\n      tag_104\n      jump\t// in\n    tag_146:\n        /* \"#utility.yul\":4825:4830   */\n      dup2\n        /* \"#utility.yul\":4822:4857   */\n      eq\n        /* \"#utility.yul\":4812:4875   */\n      tag_147\n      jumpi\n        /* \"#utility.yul\":4871:4872   */\n      0x00\n        /* \"#utility.yul\":4868:4869   */\n      dup1\n        /* \"#utility.yul\":4861:4873   */\n      revert\n        /* \"#utility.yul\":4812:4875   */\n    tag_147:\n        /* \"#utility.yul\":4759:4881   */\n      pop\n      jump\t// out\n\n    auxdata: 0xa26469706673582212208f2a7802f5c1e4f5658cfbe5d7ded104f0f44bb07ce88cedf1e7ba2e9e9a816264736f6c63430008070033\n}\n",
				"bytecode": {
					"linkReferences": {},
					"object": "608060405234801561001057600080fd5b5061086e806100206000396000f3fe608060405234801561001057600080fd5b50600436106100935760003560e01c8063771602f711610066578063771602f7146101365780638040a979146101525780638b077d0214610184578063b67d77c5146101b6578063f88e9fbf146101d257610093565b80630e08e1b014610098578063165c4a16146100ca57806363a96a52146100e65780636d4ce63c14610118575b600080fd5b6100b260048036038101906100ad9190610554565b6101ee565b6040516100c19392919061062e565b60405180910390f35b6100e460048036038101906100df9190610581565b610228565b005b61010060048036038101906100fb9190610554565b6102af565b60405161010f9392919061062e565b60405180910390f35b6101206102e9565b60405161012d9190610613565b60405180910390f35b610150600480360381019061014b9190610581565b6102f2565b005b61016c60048036038101906101679190610554565b610379565b60405161017b9392919061062e565b60405180910390f35b61019e60048036038101906101999190610554565b6103b3565b6040516101ad9392919061062e565b60405180910390f35b6101d060048036038101906101cb9190610581565b6103ed565b005b6101ec60048036038101906101e79190610581565b610474565b005b600181815481106101fe57600080fd5b90600052602060002090600302016000915090508060000154908060010154908060020154905083565b808261023491906106fd565b60008190555060046040518060600160405280848152602001838152602001838561025f9190610676565b815250908060018154018082558091505060019003906000526020600020906003020160009091909190915060008201518160000155602082015181600101556040820151816002015550505050565b600481815481106102bf57600080fd5b90600052602060002090600302016000915090508060000154908060010154908060020154905083565b60008054905090565b80826102fe9190610676565b6000819055506001604051806060016040528084815260200183815260200183856103299190610676565b815250908060018154018082558091505060019003906000526020600020906003020160009091909190915060008201518160000155602082015181600101556040820151816002015550505050565b6003818154811061038957600080fd5b90600052602060002090600302016000915090508060000154908060010154908060020154905083565b600281815481106103c357600080fd5b90600052602060002090600302016000915090508060000154908060010154908060020154905083565b80826103f99190610757565b6000819055506002604051806060016040528084815260200183815260200183856104249190610676565b815250908060018154018082558091505060019003906000526020600020906003020160009091909190915060008201518160000155602082015181600101556040820151816002015550505050565b60008114156104b8576040517f08c379a00000000000000000000000000000000000000000000000000000000081526004016104af906105f3565b60405180910390fd5b80826104c491906106cc565b6000819055506003604051806060016040528084815260200183815260200183856104ef9190610676565b815250908060018154018082558091505060019003906000526020600020906003020160009091909190915060008201518160000155602082015181600101556040820151816002015550505050565b60008135905061054e81610821565b92915050565b60006020828403121561056a576105696107f3565b5b60006105788482850161053f565b91505092915050565b60008060408385031215610598576105976107f3565b5b60006105a68582860161053f565b92505060206105b78582860161053f565b9150509250929050565b60006105ce601d83610665565b91506105d9826107f8565b602082019050919050565b6105ed8161078b565b82525050565b6000602082019050818103600083015261060c816105c1565b9050919050565b600060208201905061062860008301846105e4565b92915050565b600060608201905061064360008301866105e4565b61065060208301856105e4565b61065d60408301846105e4565b949350505050565b600082825260208201905092915050565b60006106818261078b565b915061068c8361078b565b9250827fffffffffffffffffffffffffffffffffffffffffffffffffffffffffffffffff038211156106c1576106c0610795565b5b828201905092915050565b60006106d78261078b565b91506106e28361078b565b9250826106f2576106f16107c4565b5b828204905092915050565b60006107088261078b565b91506107138361078b565b9250817fffffffffffffffffffffffffffffffffffffffffffffffffffffffffffffffff048311821515161561074c5761074b610795565b5b828202905092915050565b60006107628261078b565b915061076d8361078b565b9250828210156107805761077f610795565b5b828203905092915050565b6000819050919050565b7f4e487b7100000000000000000000000000000000000000000000000000000000600052601160045260246000fd5b7f4e487b7100000000000000000000000000000000000000000000000000000000600052601260045260246000fd5b600080fd5b7f4469766973696f6e206279207a65726f206e6f7420706f737369626c65000000600082015250565b61082a8161078b565b811461083557600080fd5b5056fea26469706673582212208f2a7802f5c1e4f5658cfbe5d7ded104f0f44bb07ce88cedf1e7ba2e9e9a816264736f6c63430008070033",
					"opcodes": "PUSH1 0x80 PUSH1 0x40 MSTORE CALLVALUE DUP1 ISZERO PUSH2 0x10 JUMPI PUSH1 0x0 DUP1 REVERT JUMPDEST POP PUSH2 0x86E DUP1 PUSH2 0x20 PUSH1 0x0 CODECOPY PUSH1 0x0 RETURN INVALID PUSH1 0x80 PUSH1 0x40 MSTORE CALLVALUE DUP1 ISZERO PUSH2 0x10 JUMPI PUSH1 0x0 DUP1 REVERT JUMPDEST POP PUSH1 0x4 CALLDATASIZE LT PUSH2 0x93 JUMPI PUSH1 0x0 CALLDATALOAD PUSH1 0xE0 SHR DUP1 PUSH4 0x771602F7 GT PUSH2 0x66 JUMPI DUP1 PUSH4 0x771602F7 EQ PUSH2 0x136 JUMPI DUP1 PUSH4 0x8040A979 EQ PUSH2 0x152 JUMPI DUP1 PUSH4 0x8B077D02 EQ PUSH2 0x184 JUMPI DUP1 PUSH4 0xB67D77C5 EQ PUSH2 0x1B6 JUMPI DUP1 PUSH4 0xF88E9FBF EQ PUSH2 0x1D2 JUMPI PUSH2 0x93 JUMP JUMPDEST DUP1 PUSH4 0xE08E1B0 EQ PUSH2 0x98 JUMPI DUP1 PUSH4 0x165C4A16 EQ PUSH2 0xCA JUMPI DUP1 PUSH4 0x63A96A52 EQ PUSH2 0xE6 JUMPI DUP1 PUSH4 0x6D4CE63C EQ PUSH2 0x118 JUMPI JUMPDEST PUSH1 0x0 DUP1 REVERT JUMPDEST PUSH2 0xB2 PUSH1 0x4 DUP1 CALLDATASIZE SUB DUP2 ADD SWAP1 PUSH2 0xAD SWAP2 SWAP1 PUSH2 0x554 JUMP JUMPDEST PUSH2 0x1EE JUMP JUMPDEST PUSH1 0x40 MLOAD PUSH2 0xC1 SWAP4 SWAP3 SWAP2 SWAP1 PUSH2 0x62E JUMP JUMPDEST PUSH1 0x40 MLOAD DUP1 SWAP2 SUB SWAP1 RETURN JUMPDEST PUSH2 0xE4 PUSH1 0x4 DUP1 CALLDATASIZE SUB DUP2 ADD SWAP1 PUSH2 0xDF SWAP2 SWAP1 PUSH2 0x581 JUMP JUMPDEST PUSH2 0x228 JUMP JUMPDEST STOP JUMPDEST PUSH2 0x100 PUSH1 0x4 DUP1 CALLDATASIZE SUB DUP2 ADD SWAP1 PUSH2 0xFB SWAP2 SWAP1 PUSH2 0x554 JUMP JUMPDEST PUSH2 0x2AF JUMP JUMPDEST PUSH1 0x40 MLOAD PUSH2 0x10F SWAP4 SWAP3 SWAP2 SWAP1 PUSH2 0x62E JUMP JUMPDEST PUSH1 0x40 MLOAD DUP1 SWAP2 SUB SWAP1 RETURN JUMPDEST PUSH2 0x120 PUSH2 0x2E9 JUMP JUMPDEST PUSH1 0x40 MLOAD PUSH2 0x12D SWAP2 SWAP1 PUSH2 0x613 JUMP JUMPDEST PUSH1 0x40 MLOAD DUP1 SWAP2 SUB SWAP1 RETURN JUMPDEST PUSH2 0x150 PUSH1 0x4 DUP1 CALLDATASIZE SUB DUP2 ADD SWAP1 PUSH2 0x14B SWAP2 SWAP1 PUSH2 0x581 JUMP JUMPDEST PUSH2 0x2F2 JUMP JUMPDEST STOP JUMPDEST PUSH2 0x16C PUSH1 0x4 DUP1 CALLDATASIZE SUB DUP2 ADD SWAP1 PUSH2 0x167 SWAP2 SWAP1 PUSH2 0x554 JUMP JUMPDEST PUSH2 0x379 JUMP JUMPDEST PUSH1 0x40 MLOAD PUSH2 0x17B SWAP4 SWAP3 SWAP2 SWAP1 PUSH2 0x62E JUMP JUMPDEST PUSH1 0x40 MLOAD DUP1 SWAP2 SUB SWAP1 RETURN JUMPDEST PUSH2 0x19E PUSH1 0x4 DUP1 CALLDATASIZE SUB DUP2 ADD SWAP1 PUSH2 0x199 SWAP2 SWAP1 PUSH2 0x554 JUMP JUMPDEST PUSH2 0x3B3 JUMP JUMPDEST PUSH1 0x40 MLOAD PUSH2 0x1AD SWAP4 SWAP3 SWAP2 SWAP1 PUSH2 0x62E JUMP JUMPDEST PUSH1 0x40 MLOAD DUP1 SWAP2 SUB SWAP1 RETURN JUMPDEST PUSH2 0x1D0 PUSH1 0x4 DUP1 CALLDATASIZE SUB DUP2 ADD SWAP1 PUSH2 0x1CB SWAP2 SWAP1 PUSH2 0x581 JUMP JUMPDEST PUSH2 0x3ED JUMP JUMPDEST STOP JUMPDEST PUSH2 0x1EC PUSH1 0x4 DUP1 CALLDATASIZE SUB DUP2 ADD SWAP1 PUSH2 0x1E7 SWAP2 SWAP1 PUSH2 0x581 JUMP JUMPDEST PUSH2 0x474 JUMP JUMPDEST STOP JUMPDEST PUSH1 0x1 DUP2 DUP2 SLOAD DUP2 LT PUSH2 0x1FE JUMPI PUSH1 0x0 DUP1 REVERT JUMPDEST SWAP1 PUSH1 0x0 MSTORE PUSH1 0x20 PUSH1 0x0 KECCAK256 SWAP1 PUSH1 0x3 MUL ADD PUSH1 0x0 SWAP2 POP SWAP1 POP DUP1 PUSH1 0x0 ADD SLOAD SWAP1 DUP1 PUSH1 0x1 ADD SLOAD SWAP1 DUP1 PUSH1 0x2 ADD SLOAD SWAP1 POP DUP4 JUMP JUMPDEST DUP1 DUP3 PUSH2 0x234 SWAP2 SWAP1 PUSH2 0x6FD JUMP JUMPDEST PUSH1 0x0 DUP2 SWAP1 SSTORE POP PUSH1 0x4 PUSH1 0x40 MLOAD DUP1 PUSH1 0x60 ADD PUSH1 0x40 MSTORE DUP1 DUP5 DUP2 MSTORE PUSH1 0x20 ADD DUP4 DUP2 MSTORE PUSH1 0x20 ADD DUP4 DUP6 PUSH2 0x25F SWAP2 SWAP1 PUSH2 0x676 JUMP JUMPDEST DUP2 MSTORE POP SWAP1 DUP1 PUSH1 0x1 DUP2 SLOAD ADD DUP1 DUP3 SSTORE DUP1 SWAP2 POP POP PUSH1 0x1 SWAP1 SUB SWAP1 PUSH1 0x0 MSTORE PUSH1 0x20 PUSH1 0x0 KECCAK256 SWAP1 PUSH1 0x3 MUL ADD PUSH1 0x0 SWAP1 SWAP2 SWAP1 SWAP2 SWAP1 SWAP2 POP PUSH1 0x0 DUP3 ADD MLOAD DUP2 PUSH1 0x0 ADD SSTORE PUSH1 0x20 DUP3 ADD MLOAD DUP2 PUSH1 0x1 ADD SSTORE PUSH1 0x40 DUP3 ADD MLOAD DUP2 PUSH1 0x2 ADD SSTORE POP POP POP POP JUMP JUMPDEST PUSH1 0x4 DUP2 DUP2 SLOAD DUP2 LT PUSH2 0x2BF JUMPI PUSH1 0x0 DUP1 REVERT JUMPDEST SWAP1 PUSH1 0x0 MSTORE PUSH1 0x20 PUSH1 0x0 KECCAK256 SWAP1 PUSH1 0x3 MUL ADD PUSH1 0x0 SWAP2 POP SWAP1 POP DUP1 PUSH1 0x0 ADD SLOAD SWAP1 DUP1 PUSH1 0x1 ADD SLOAD SWAP1 DUP1 PUSH1 0x2 ADD SLOAD SWAP1 POP DUP4 JUMP JUMPDEST PUSH1 0x0 DUP1 SLOAD SWAP1 POP SWAP1 JUMP JUMPDEST DUP1 DUP3 PUSH2 0x2FE SWAP2 SWAP1 PUSH2 0x676 JUMP JUMPDEST PUSH1 0x0 DUP2 SWAP1 SSTORE POP PUSH1 0x1 PUSH1 0x40 MLOAD DUP1 PUSH1 0x60 ADD PUSH1 0x40 MSTORE DUP1 DUP5 DUP2 MSTORE PUSH1 0x20 ADD DUP4 DUP2 MSTORE PUSH1 0x20 ADD DUP4 DUP6 PUSH2 0x329 SWAP2 SWAP1 PUSH2 0x676 JUMP JUMPDEST DUP2 MSTORE POP SWAP1 DUP1 PUSH1 0x1 DUP2 SLOAD ADD DUP1 DUP3 SSTORE DUP1 SWAP2 POP POP PUSH1 0x1 SWAP1 SUB SWAP1 PUSH1 0x0 MSTORE PUSH1 0x20 PUSH1 0x0 KECCAK256 SWAP1 PUSH1 0x3 MUL ADD PUSH1 0x0 SWAP1 SWAP2 SWAP1 SWAP2 SWAP1 SWAP2 POP PUSH1 0x0 DUP3 ADD MLOAD DUP2 PUSH1 0x0 ADD SSTORE PUSH1 0x20 DUP3 ADD MLOAD DUP2 PUSH1 0x1 ADD SSTORE PUSH1 0x40 DUP3 ADD MLOAD DUP2 PUSH1 0x2 ADD SSTORE POP POP POP POP JUMP JUMPDEST PUSH1 0x3 DUP2 DUP2 SLOAD DUP2 LT PUSH2 0x389 JUMPI PUSH1 0x0 DUP1 REVERT JUMPDEST SWAP1 PUSH1 0x0 MSTORE PUSH1 0x20 PUSH1 0x0 KECCAK256 SWAP1 PUSH1 0x3 MUL ADD PUSH1 0x0 SWAP2 POP SWAP1 POP DUP1 PUSH1 0x0 ADD SLOAD SWAP1 DUP1 PUSH1 0x1 ADD SLOAD SWAP1 DUP1 PUSH1 0x2 ADD SLOAD SWAP1 POP DUP4 JUMP JUMPDEST PUSH1 0x2 DUP2 DUP2 SLOAD DUP2 LT PUSH2 0x3C3 JUMPI PUSH1 0x0 DUP1 REVERT JUMPDEST SWAP1 PUSH1 0x0 MSTORE PUSH1 0x20 PUSH1 0x0 KECCAK256 SWAP1 PUSH1 0x3 MUL ADD PUSH1 0x0 SWAP2 POP SWAP1 POP DUP1 PUSH1 0x0 ADD SLOAD SWAP1 DUP1 PUSH1 0x1 ADD SLOAD SWAP1 DUP1 PUSH1 0x2 ADD SLOAD SWAP1 POP DUP4 JUMP JUMPDEST DUP1 DUP3 PUSH2 0x3F9 SWAP2 SWAP1 PUSH2 0x757 JUMP JUMPDEST PUSH1 0x0 DUP2 SWAP1 SSTORE POP PUSH1 0x2 PUSH1 0x40 MLOAD DUP1 PUSH1 0x60 ADD PUSH1 0x40 MSTORE DUP1 DUP5 DUP2 MSTORE PUSH1 0x20 ADD DUP4 DUP2 MSTORE PUSH1 0x20 ADD DUP4 DUP6 PUSH2 0x424 SWAP2 SWAP1 PUSH2 0x676 JUMP JUMPDEST DUP2 MSTORE POP SWAP1 DUP1 PUSH1 0x1 DUP2 SLOAD ADD DUP1 DUP3 SSTORE DUP1 SWAP2 POP POP PUSH1 0x1 SWAP1 SUB SWAP1 PUSH1 0x0 MSTORE PUSH1 0x20 PUSH1 0x0 KECCAK256 SWAP1 PUSH1 0x3 MUL ADD PUSH1 0x0 SWAP1 SWAP2 SWAP1 SWAP2 SWAP1 SWAP2 POP PUSH1 0x0 DUP3 ADD MLOAD DUP2 PUSH1 0x0 ADD SSTORE PUSH1 0x20 DUP3 ADD MLOAD DUP2 PUSH1 0x1 ADD SSTORE PUSH1 0x40 DUP3 ADD MLOAD DUP2 PUSH1 0x2 ADD SSTORE POP POP POP POP JUMP JUMPDEST PUSH1 0x0 DUP2 EQ ISZERO PUSH2 0x4B8 JUMPI PUSH1 0x40 MLOAD PUSH32 0x8C379A000000000000000000000000000000000000000000000000000000000 DUP2 MSTORE PUSH1 0x4 ADD PUSH2 0x4AF SWAP1 PUSH2 0x5F3 JUMP JUMPDEST PUSH1 0x40 MLOAD DUP1 SWAP2 SUB SWAP1 REVERT JUMPDEST DUP1 DUP3 PUSH2 0x4C4 SWAP2 SWAP1 PUSH2 0x6CC JUMP JUMPDEST PUSH1 0x0 DUP2 SWAP1 SSTORE POP PUSH1 0x3 PUSH1 0x40 MLOAD DUP1 PUSH1 0x60 ADD PUSH1 0x40 MSTORE DUP1 DUP5 DUP2 MSTORE PUSH1 0x20 ADD DUP4 DUP2 MSTORE PUSH1 0x20 ADD DUP4 DUP6 PUSH2 0x4EF SWAP2 SWAP1 PUSH2 0x676 JUMP JUMPDEST DUP2 MSTORE POP SWAP1 DUP1 PUSH1 0x1 DUP2 SLOAD ADD DUP1 DUP3 SSTORE DUP1 SWAP2 POP POP PUSH1 0x1 SWAP1 SUB SWAP1 PUSH1 0x0 MSTORE PUSH1 0x20 PUSH1 0x0 KECCAK256 SWAP1 PUSH1 0x3 MUL ADD PUSH1 0x0 SWAP1 SWAP2 SWAP1 SWAP2 SWAP1 SWAP2 POP PUSH1 0x0 DUP3 ADD MLOAD DUP2 PUSH1 0x0 ADD SSTORE PUSH1 0x20 DUP3 ADD MLOAD DUP2 PUSH1 0x1 ADD SSTORE PUSH1 0x40 DUP3 ADD MLOAD DUP2 PUSH1 0x2 ADD SSTORE POP POP POP POP JUMP JUMPDEST PUSH1 0x0 DUP2 CALLDATALOAD SWAP1 POP PUSH2 0x54E DUP2 PUSH2 0x821 JUMP JUMPDEST SWAP3 SWAP2 POP POP JUMP JUMPDEST PUSH1 0x0 PUSH1 0x20 DUP3 DUP5 SUB SLT ISZERO PUSH2 0x56A JUMPI PUSH2 0x569 PUSH2 0x7F3 JUMP JUMPDEST JUMPDEST PUSH1 0x0 PUSH2 0x578 DUP5 DUP3 DUP6 ADD PUSH2 0x53F JUMP JUMPDEST SWAP2 POP POP SWAP3 SWAP2 POP POP JUMP JUMPDEST PUSH1 0x0 DUP1 PUSH1 0x40 DUP4 DUP6 SUB SLT ISZERO PUSH2 0x598 JUMPI PUSH2 0x597 PUSH2 0x7F3 JUMP JUMPDEST JUMPDEST PUSH1 0x0 PUSH2 0x5A6 DUP6 DUP3 DUP7 ADD PUSH2 0x53F JUMP JUMPDEST SWAP3 POP POP PUSH1 0x20 PUSH2 0x5B7 DUP6 DUP3 DUP7 ADD PUSH2 0x53F JUMP JUMPDEST SWAP2 POP POP SWAP3 POP SWAP3 SWAP1 POP JUMP JUMPDEST PUSH1 0x0 PUSH2 0x5CE PUSH1 0x1D DUP4 PUSH2 0x665 JUMP JUMPDEST SWAP2 POP PUSH2 0x5D9 DUP3 PUSH2 0x7F8 JUMP JUMPDEST PUSH1 0x20 DUP3 ADD SWAP1 POP SWAP2 SWAP1 POP JUMP JUMPDEST PUSH2 0x5ED DUP2 PUSH2 0x78B JUMP JUMPDEST DUP3 MSTORE POP POP JUMP JUMPDEST PUSH1 0x0 PUSH1 0x20 DUP3 ADD SWAP1 POP DUP2 DUP2 SUB PUSH1 0x0 DUP4 ADD MSTORE PUSH2 0x60C DUP2 PUSH2 0x5C1 JUMP JUMPDEST SWAP1 POP SWAP2 SWAP1 POP JUMP JUMPDEST PUSH1 0x0 PUSH1 0x20 DUP3 ADD SWAP1 POP PUSH2 0x628 PUSH1 0x0 DUP4 ADD DUP5 PUSH2 0x5E4 JUMP JUMPDEST SWAP3 SWAP2 POP POP JUMP JUMPDEST PUSH1 0x0 PUSH1 0x60 DUP3 ADD SWAP1 POP PUSH2 0x643 PUSH1 0x0 DUP4 ADD DUP7 PUSH2 0x5E4 JUMP JUMPDEST PUSH2 0x650 PUSH1 0x20 DUP4 ADD DUP6 PUSH2 0x5E4 JUMP JUMPDEST PUSH2 0x65D PUSH1 0x40 DUP4 ADD DUP5 PUSH2 0x5E4 JUMP JUMPDEST SWAP5 SWAP4 POP POP POP POP JUMP JUMPDEST PUSH1 0x0 DUP3 DUP3 MSTORE PUSH1 0x20 DUP3 ADD SWAP1 POP SWAP3 SWAP2 POP POP JUMP JUMPDEST PUSH1 0x0 PUSH2 0x681 DUP3 PUSH2 0x78B JUMP JUMPDEST SWAP2 POP PUSH2 0x68C DUP4 PUSH2 0x78B JUMP JUMPDEST SWAP3 POP DUP3 PUSH32 0xFFFFFFFFFFFFFFFFFFFFFFFFFFFFFFFFFFFFFFFFFFFFFFFFFFFFFFFFFFFFFFFF SUB DUP3 GT ISZERO PUSH2 0x6C1 JUMPI PUSH2 0x6C0 PUSH2 0x795 JUMP JUMPDEST JUMPDEST DUP3 DUP3 ADD SWAP1 POP SWAP3 SWAP2 POP POP JUMP JUMPDEST PUSH1 0x0 PUSH2 0x6D7 DUP3 PUSH2 0x78B JUMP JUMPDEST SWAP2 POP PUSH2 0x6E2 DUP4 PUSH2 0x78B JUMP JUMPDEST SWAP3 POP DUP3 PUSH2 0x6F2 JUMPI PUSH2 0x6F1 PUSH2 0x7C4 JUMP JUMPDEST JUMPDEST DUP3 DUP3 DIV SWAP1 POP SWAP3 SWAP2 POP POP JUMP JUMPDEST PUSH1 0x0 PUSH2 0x708 DUP3 PUSH2 0x78B JUMP JUMPDEST SWAP2 POP PUSH2 0x713 DUP4 PUSH2 0x78B JUMP JUMPDEST SWAP3 POP DUP2 PUSH32 0xFFFFFFFFFFFFFFFFFFFFFFFFFFFFFFFFFFFFFFFFFFFFFFFFFFFFFFFFFFFFFFFF DIV DUP4 GT DUP3 ISZERO ISZERO AND ISZERO PUSH2 0x74C JUMPI PUSH2 0x74B PUSH2 0x795 JUMP JUMPDEST JUMPDEST DUP3 DUP3 MUL SWAP1 POP SWAP3 SWAP2 POP POP JUMP JUMPDEST PUSH1 0x0 PUSH2 0x762 DUP3 PUSH2 0x78B JUMP JUMPDEST SWAP2 POP PUSH2 0x76D DUP4 PUSH2 0x78B JUMP JUMPDEST SWAP3 POP DUP3 DUP3 LT ISZERO PUSH2 0x780 JUMPI PUSH2 0x77F PUSH2 0x795 JUMP JUMPDEST JUMPDEST DUP3 DUP3 SUB SWAP1 POP SWAP3 SWAP2 POP POP JUMP JUMPDEST PUSH1 0x0 DUP2 SWAP1 POP SWAP2 SWAP1 POP JUMP JUMPDEST PUSH32 0x4E487B7100000000000000000000000000000000000000000000000000000000 PUSH1 0x0 MSTORE PUSH1 0x11 PUSH1 0x4 MSTORE PUSH1 0x24 PUSH1 0x0 REVERT JUMPDEST PUSH32 0x4E487B7100000000000000000000000000000000000000000000000000000000 PUSH1 0x0 MSTORE PUSH1 0x12 PUSH1 0x4 MSTORE PUSH1 0x24 PUSH1 0x0 REVERT JUMPDEST PUSH1 0x0 DUP1 REVERT JUMPDEST PUSH32 0x4469766973696F6E206279207A65726F206E6F7420706F737369626C65000000 PUSH1 0x0 DUP3 ADD MSTORE POP JUMP JUMPDEST PUSH2 0x82A DUP2 PUSH2 0x78B JUMP JUMPDEST DUP2 EQ PUSH2 0x835 JUMPI PUSH1 0x0 DUP1 REVERT JUMPDEST POP JUMP INVALID LOG2 PUSH5 0x6970667358 0x22 SLT KECCAK256 DUP16 0x2A PUSH25 0x2F5C1E4F5658CFBE5D7DED104F0F44BB07CE88CEDF1E7BA2E SWAP15 SWAP11 DUP2 PUSH3 0x64736F PUSH13 0x63430008070033000000000000 "
				},
				"gasEstimates": {
					"creation": {
						"codeDepositCost": "431600",
						"executionCost": "468",
						"totalCost": "432068"
					},
					"external": {
						"add(uint256,uint256)": "infinite",
						"additionHistory(uint256)": "infinite",
						"divide(uint256,uint256)": "infinite",
						"divisionHistory(uint256)": "infinite",
						"get()": "2504",
						"multiplicationHistory(uint256)": "infinite",
						"multiply(uint256,uint256)": "infinite",
						"sub(uint256,uint256)": "infinite",
						"subtractionHistory(uint256)": "infinite"
					}
				},
				"methodIdentifiers": {
					"add(uint256,uint256)": "771602f7",
					"additionHistory(uint256)": "0e08e1b0",
					"divide(uint256,uint256)": "f88e9fbf",
					"divisionHistory(uint256)": "8040a979",
					"get()": "6d4ce63c",
					"multiplicationHistory(uint256)": "63a96a52",
					"multiply(uint256,uint256)": "165c4a16",
					"sub(uint256,uint256)": "b67d77c5",
					"subtractionHistory(uint256)": "8b077d02"
				}
			},
			"userdoc": {
				"kind": "user",
				"methods": {},
				"version": 1
			}
		}
	}
}